S0190000436F6E6E656374697669747920546573742E737265634C
S1130000F87F0020916B0000856B00008D6B000071
S1130010896B0000896B0000896B0000896B00000C
S1130020896B0000896B0000896B0000896B0000FC
S1130030896B0000896B0000896B0000896B0000EC
S1130040896B0000896B0000896B0000896B0000DC
S1130050896B0000896B0000896B0000896B0000CC
S1130060896B0000896B0000896B0000896B0000BC
S1130070896B0000896B0000896B0000896B0000AC
S1130080896B0000896B0000896B0000896B00009C
S1130090896B0000896B0000896B0000896B00008C
S11300A0896B0000896B0000896B0000896B00007C
S11300B0896B0000896B0000896B0000896B00006C
S11300C0896B0000115B0000955B0000896B0000E8
S11300D0896B0000896B0000896B0000896B00004C
S11300E0896B0000896B000041310000896B0000BE
S11300F0896B0000896B0000896B0000896B00002C
S1130100A70A0000A70A0000A70A0000A70A000027
S1130110896B0000896B0000896B0000896B00000B
S1130120896B0000896B0000896B0000896B0000FB
S11301300D660000675C0000896B0000896B00009D
S1070140896B0000C3
S10F014480BB00007E04FFFFFF0B0000E6
S11304102DE9F04F8DB00026782741F68F10DFF8D4
S11304203C1D08800020DFF8501C08600020DFF825
S11304304C1C08600020DFF8481C08600020DFF82E
S1130440441C08600020DFF8401C086001F0C6F975
S113045001F0CFFA00F057FA01F02AFF41F26F7071
S113046000F0FDFADFF83409006850F01000DFF8FE
S11304702C190860DFF82409006850F00800DFF840
S11304801C1908600120DFF8181908700B20DFF828
S1130490A01D81F843005FF00008DFF8940D90F888
S11304A0430002F043F981461F2002F073F98246AB
S11304B0DFF8D80B007802F099F983460020DFF8C2
S11304C0D01B088000F08FFB0021DFF8182D11707D
S11304D0DFF8C01B096851F01001DFF8B82B116078
S11304E0DFF8B01B096851F00801DFF8A82B116090
S11304F00021DFF8942B1160DFF8981B096851F094
S11305000201DFF8902B1160DFF8881B096851F0B5
S11305102001DFF8802B11600020DFF85C1B0860ED
S11305200020DFF8581B08600020DFF8541B086027
S11305300020DFF8FC1C48810020DFF8F41C48830D
S11305400020DFF8EC1C48854FF47A60DFF8E01CEB
S113055008814FF47A60DFF8D81C08834FF47A607E
S1130560DFF8CC1C0885DFF8CC0CC08A4FF47A7114
S113057010FB01F900F000FADFF8B40C4089DFF851
S1130580B01C0989401A0090DFF8A40C408BDFF8F6
S1130590A01C098B401A0400DFF8940C408DDFF88E
S11305A0901C098D401A0500009887420ADB0098C8
S11305B0F84207DBA74205DBFC4203DBAF4201DB69
S11305C0FD4245DADFF8C80A0088401CDFF8C01A8B
S11305D008800020804600F0D7FF82465FFA8AFA3E
S11305E0BAF1000F01D100F070FBB8F101081FFA55
S11305F088F8B8F1000FF8D10020DFF8EC1B087080
S1130600DFF8E00B90F9000002281FD1DFF8280C76
S1130610007800281AD0DFF8240C006880780628B7
S113062014DBDFF8180C0068807818280BD107A8B1
S113063000F032FD07A800F093FD07A800F078F859
S1130640002803D168E707A801F07DF80020060020
S1130650782E5DD10020DFF8D81B48810020DFF818
S1130660D01B08810020DFF8C81B48830020DFF876
S1130670C01B08830020DFF8B81B48850020DFF882
S1130680B01B0885DFF8080A0088401CDFF8001A50
S113069008800020804600F077FF82465FFA8AFADD
S11306A0BAF1000F01D100F010FBB8F101081FFAF4
S11306B088F8B8F1000FF8D10020DFF82C1B08707F
S11306C0DFF8200B90F9000002281FD1DFF8680B37
S11306D0007800281AD0DFF8640B006880780628B8
S11306E014DBDFF8580B0068807818280BD101A8B8
S11306F000F0D2FC01A800F033FD01A800F018F8C6
S1130700002803D108E701A801F01DF80020060025
S1130710761C00F05DFFDFF8280B007800287FF4DA
S1130720FBAE0020DFF81C1D086000F06BF8F2E758
S113073001000878002807D00878412802DA0878F0
S1130740052801DA00203BE04888B0F5616F02DC3F
S11307504888002801D1002032E08888B0F5FA5F8B
S113076001D000202CE08879022801DB002027E05A
S1130770C879022801DB002022E0087A642801D02D
S113078000201DE0C86848F2E802904201D0002031
S113079016E00869DFF8B02C904201D000200FE089
S11307A0087D012801D000200AE0C88A40F6B93249
S11307B0904202DAC88A032801DA002000E001200E
S11307C0704780B5DFF87C0ADFF8681A182202F057
S11307D009FADFF8700A00F0C3FCDFF86C0A8088BD
S11307E0DFF8641A898889B2090A51EA0020DFF81F
S11307F0581A888000F03AFEDFF8700D006801F0A6
S113080057FE02BD80B5DFF8440A0078002805D001
S113081002281BD00BD3032856D06BE00220DFF84C
S11308202C1A087000F0C2FF00F0AEFF6AE000204E
S1130830DFF8B41908700120DFF8141A0870DFF823
S1130840140A0078DFF8041A08705BE0DFF8000A85
S11308500078002815D10121DFF8FC09006802F0B6
S1130860ECF90121DFF8F40902F0E7F9DFF8DC091B
S11308700078DFF8E01908700120DFF8D01908705B
S113088021E00121DFF8D809006802F0D6F901213E
S1130890DFF8D009006802F0D0F900F06DFF02F033
S11308A0CBFADFF8A82BDFF8A80B0188DFF8A40B3C
S11308B0007802F0AFFC0020DFF8941908700020E3
S11308C0DFF8FC1C08701DE00121DFF88C0B02F03E
S11308D0B4F9DFF880090078012804D10121DFF898
S11308E07C0B02F0AAF9DFF86C090078DFF85C19D8
S11308F0087007E00220DFF8541908700020DFF8C0
S1130900C01C087001BDDFF8580B006850F480501B
S1130910DFF84C1B0860DFF84C0B006830F4E06033
S1130920DFF8401B0860DFF83C0B006850F480706F
S1130930DFF8301B0860DFF8300B006830F4E0604B
S1130940DFF8241B0860DFF8200B006850F4807087
S1130950DFF8141B0860DFF8EC0A006850F022008E
S1130960DFF8E01A0860DFF85C0C006850F0220041
S1130970DFF8501C0860704738B5002400250120BA
S1130980DFF80017086041F26F7000F068F830205B
S113099002F0BAFD0120DFF8EC1608600020DFF851
S11309A0E8160860DFF8E0060068B0F5FA5FF9DBE6
S11309B00020DFF8D0160860DFF8BC06006810F5E8
S11309C07A604FF4FA51B0FBF1F0DFF864188881D3
S11309D0DFF8A806006810F57A604FF4FA51B0FB0E
S11309E0F1F0DFF84C188883DFF89406006810F5FE
S11309F07A604FF4FA51B0FBF1F0DFF834188885CF
S1130A00302002F0CFFD01F00CFD01F0E6FC0028DF
S1130A10FBD001F00DFD040040F2751049F2A8313D
S1130A2001FB04F1DFF8482BB1FBF2F1401ADFF8C7
S1130A300018088701F0D9FC01F0CFFC0028FBD096
S1130A4001F0F6FC050041F2680000FB05F040F2FD
S1130A50FF31B0FBF1F0DFF8D817488731BD10B58E
S1130A600400302002F09EFDDFF8080B006850F40B
S1130A700000DFF8001B08600120DFF8FC1A0860A2
S1130A80DFF8F80A04600320DFF8F41A0860012094
S1130A90DFF8141D08600021302002F0B6FD30207C
S1130AA002F032FD10BD70B5002400250026DFF8E9
S1130AB0D8050068B0F5FA5F6BDCDFF8C80500689C
S1130AC0012866D101F098FC01F087FC0028FBD0D6
S1130AD001F0AEFC0400DFF858074089A04202DAB6
S1130AE0DFF84C074481DFF848070089844202DAC2
S1130AF0DFF83C070481DFF8800500682018DFF880
S1130B007815086001F07FFC01F067FC0028FBD039
S1130B1001F08EFC0500DFF81807408BA84202DACA
S1130B20DFF80C074583DFF80807008B854202DAFB
S1130B30DFF8FC060583DFF8440500682818DFF8B1
S1130B403C15086001F066FC01F047FC0028FBD06E
S1130B5001F06EFC0600DFF8D806408DB04202DAE0
S1130B60DFF8CC064685DFF8C806008D864202DA37
S1130B70DFF8BC060685DFF8080500683018DFF8E2
S1130B8000150860DFF800050068401CDFF8F81461
S1130B9008600120DFF8101C086070BDDFF8281A17
S1130BA0DFF8280A814209D3491EDFF8280C0078AF
S1130BB00A785040DFF81C2C1070F1E7DFF8140CB1
S1130BC00078C0B2DFF80C2C127812F00F0292EA0F
S1130BD01010C0B2704780B500A801F00EFD9DF959
S1130BE0000040B202BD2DE9F04700240025052095
S1130BF0DFF878190968087000F0E6FA00F0F6FAF0
S1130C00DFF83006C068DFF8601908607FF07F0005
S1130C108046FFF7C3FF050000200600F6B2402E11
S1130C203CDA01208146681C10F00F0515F10B0019
S1130C3007005FFA89F9B9F1000F05D03800C0B296
S1130C4001F074FD8146F4E701208146DFF81C09B8
S1130C50006801F02DFC81465FFA89F9B9F1000FB3
S1130C601AD100F032F8DFF8040D007800280DD016
S1130C70FFF7B1FF4FFA88F840B2804506DA8046A4
S1130C80DFF8AC1581F8437077210C00DFF8AC0570
S1130C90006840780328E4D1761CBFE7DFF89405A8
S1130CA00069DFF8C4180860DFF8840590F8430091
S1130CB001F03CFD8246DFF8780580F83C80FFF7C0
S1130CC080FD2000C0B2BDE8F08710B50120DFF838
S1130CD0141508707B20DFF8641509680870DFF8C4
S1130CE088080168DFF85405006801F023FC04005B
S1130CF0E4B2002C09D0DFF870080168DFF83C0585
S1130D00006801F017FC0400F2E7DFF8D80490F95A
S1130D1000000128F9D0DFF8240500684078022893
S1130D203BD1DFF818050068407941282DD1DFF860
S1130D300C0500688079432827D1DFF80005006896
S1130D40C0794B2821D1DFF8F404006880780528A5
S1130D501BDB0120DFF8E0140870DFF8E004006812
S1130D60008980B2010A51EA0020DFF8F0130988F3
S1130D7080B2884204D10120DFF8F01B08700CE037
S1130D800020DFF8E81B087007E00020DFF8A81453
S1130D9008700020DFF8D41B087010BDC8F00F40A5
S1130DA0A992FF1FDFF8DC078088DFF8D81789884D
S1130DB089B2090A51EA0020DFF8C8178880DFF8F1
S1130DC0C407C088DFF8BC17C98889B2090A51EA88
S1130DD00020DFF8B017C880DFF8A8070089DFF823
S1130DE0A417098989B2090A51EA0020DFF8941787
S1130DF00881DFF890074089DFF88817498989B2AC
S1130E00090A51EA0020DFF87C174881DFF87407EB
S1130E108089DFF87017898989B2090A51EA0020AC
S1130E20DFF860178881DFF85C07008BDFF8541760
S1130E30098B89B2090A51EA0020DFF848170883B0
S1130E40DFF84007408BDFF83C17498B89B2090A69
S1130E5051EA0020DFF82C174883DFF82807808B3D
S1130E60DFF82017898B89B2090A51EA0020DFF8DC
S1130E7014178883DFF80C07008DDFF80817098D35
S1130E8089B2090A51EA0020DFF8F8160885DFF86C
S1130E90F406408DDFF8EC16498D89B2090A51EA4F
S1130EA00020DFF8E0164885DFF8D806808DDFF8EB
S1130EB0D416898D89B2090A51EA0020DFF8C416D4
S1130EC08885DFF8C006408FDFF8B816498F89B2ED
S1130ED0090A51EA0020DFF8AC164887DFF8A406B7
S1130EE0C08FDFF8A016C98F89B2090A51EA002021
S1130EF0DFF89016C887DFF88C06B0F84000DFF8FA
S1130F008416B1F8401089B2090A51EA0020DFF8CA
S1130F107416A1F84000DFF86C06008FDFF8641641
S1130F20B1F93810C1F3072151EA0020DFF8541653
S1130F300887DFF850060069000230F0FF10DFF880
S1130F4044160969090A11F0FF110843DFF8341641
S1130F500861DFF830060069DFF8281609695FEADE
S1130F603140DFF820160861DFF8180640690002F6
S1130F7030F0FF10DFF80C164969090A11F0FF116F
S1130F800843DFF800164861DFF8F8054069DFF828
S1130F90F41549695FEA3140DFF8E8154861DFF884
S1130FA0E405006A000230F0FF10DFF8D815096A82
S1130FB0090A11F0FF110843DFF8C8150862DFF8C9
S1130FC0C405006ADFF8BC15096A5FEA3140DFF83E
S1130FD0B4150862DFF8AC05406A000230F0FF1077
S1130FE0DFF8A015496A090A11F0FF110843DFF878
S1130FF094154862DFF88C05406ADFF88815496A61
S11310005FEA3140DFF87C154862DFF87805006B51
S1131010000230F0FF10DFF86C15096B090A11F0BB
S1131020FF110843DFF85C150863DFF85805006B0F
S1131030DFF85015096B5FEA3140DFF848150863A3
S1131040DFF84005406B000230F0FF10DFF8341584
S1131050496B090A11F0FF110843DFF828154863AA
S1131060DFF82005406BDFF81C15496B5FEA31405F
S1131070DFF81015486370473892FF1F3C92FF1F3A
S11310804092FF1F3492FF1F3092FF1FA392FF1F55
S11310908692FF1FC4F00F4038B5040005250122D5
S11310A0664800682818411D200002F01BFB6D1CD7
S11310B00222624800682818411DA01C02F012FB9D
S11310C0AD1C02225D4800682818411D201D02F055
S11310D009FBAD1C0122594800682818411DA01DB8
S11310E002F000FB6D1C0122544800682818411DC1
S11310F0E01D02F0F7FA6D1C012250480068281820
S1131100411D14F1080002F0EDFA6D1C04224B4855
S113111000682818411D14F10C0002F0E3FA2D1D9B
S11311200422464800682818411D14F1100002F0FA
S1131130D9FA2D1D0122414800682818411D14F1D7
S1131140140002F0CFFA6D1C02223C4800682818F3
S1131150411D14F1160002F0C5FA31BD8492FF1F3F
S11311604188428892B2120A52EA01214180818860
S1131170828892B2120A52EA01218180C18AC28A0B
S113118092B2120A52EA0121C182C168090231F005
S1131190FF11C268120A12F0FF121143C160C16844
S11311A0C2685FEA3241C1600169090231F0FF118E
S11311B00269120A12F0FF12114301610169026906
S11311C05FEA324101617047DFF870088088DFF818
S11311D06C18898889B2090A51EA0020DFF85C1882
S11311E0888070479792FF1FA692FF1F80B5012247
S11311F0DFF84818DD480068C01C02F073FA0122C9
S1131200DFF83C18D9480068001D02F06BFA01228F
S1131210DFF83018D5480068401D02F063FA022256
S1131220DFF82418D1480068801D02F05BFA01BD84
S11312303890FF1FA891FF1F9892FF1F2492FF1F51
S1131240B192FF1F9091FF1F8891FF1F9192FF1F82
S11312509392FF1F9292FF1F1492FF1FB46B000022
S11312601892FF1F1C92FF1F80B50122DFF8141390
S1131270BE480068C01C02F035FA0122DFF8CC1722
S1131280BA480068001D02F02DFA0122DFF8C017E9
S1131290B6480068401D02F025FA0122DFF8B417B1
S11312A0B2480068801D02F01DFA0222DFF8A81778
S11312B0AE480068C01D02F015FA0222DFF89C1740
S11312C0AA480068093002F00DFA0222DFF89017EC
S11312D0A64800680B3002F005FA0222DFF88417F2
S11312E0A24800680D3002F0FDF90222DFF87817F9
S11312F09E4800680F3002F0F5F90422DFF86C17FD
S11313009A480068113002F0EDF90422DFF8601702
S113131096480068153002F0E5F90222DFF8541708
S113132092480068193002F0DDF90222DFF848170C
S11313308E4800681B3002F0D5F90222DFF83C1712
S11313408A4800681D3002F0CDF90422DFF8301716
S1131350864800681F3002F0C5F90422DFF824171C
S113136082480068233002F0BDF90222DFF8181722
S11313707E480068273002F0B5F90222DFF80C1726
S11313807A480068293002F0ADF90222DFF800172C
S1131390764800682B3002F0A5F90422DFF8F41631
S11313A0724800682D3002F09DF90422DFF8E81637
S11313B06E480068313002F095F90222DFF8DC163D
S11313C06A480068353002F08DF90222DFF8D01641
S11313D066480068373002F085F90122DFF8C41648
S11313E062480068393002F07DF90222DFF8B8164D
S11313F05E4800683A3002F075F90222DFF8AC1654
S11314005A4800683C3002F06DF90122DFF8A0165A
S1131410564800683E3002F065F90122DFF8941660
S1131420524800683F3002F05DF90122DFF8881667
S11314304E480068403002F055F93E204B49096897
S1131440087001BDD4F00F408884020079220000A6
S11314504C80FF1F4F80FF1F6C6B0000606B00000F
S11314603880044004C0044014C0044080B5012204
S1131470DFF848163D480068C01C02F033F9012229
S1131480DFF8201939480068001D02F02BF9012209
S1131490DFF8141935480068401D02F023F90122D1
S11314A0DFF8081931480068801D02F01BF9022298
S11314B0DFF8FC182D480068C01D02F013F9012262
S11314C0DFF8F01829480068093002F00BF902220D
S11314D0DFF8E418254800680A3002F003F9022214
S11314E0DFF8D818214800680C3002F0FBF801221C
S11314F0DFF8CC181D4800680E3002F0F3F8012222
S1131500DFF8C018194800680F3002F0EBF8012228
S1131510DFF8B41815480068103002F0E3F804222C
S1131520DFF8A81811480068113002F0DBF8042233
S1131530DFF89C180D480068153002F0D3F801223A
S1131540DFF8901809480068193002F0CBF802223D
S1131550DFF88418054800681A3002F0C3F819202F
S113156002490968087001BD2892FF1F2092FF1FDD
S1131570AD4B01003C800440007003400071034007
S1131580087103403890FF1F80B5DFF850080088C9
S1131590DFF85018C880FFF71EFBDFF8481881F801
S11315A03C00FFF7FFFBFFF75FFE8B48006800F08D
S11315B07FFF0121DFF8342B1170C0B202BD00009F
S11315C09092FF1FC0F00F400092FF1FF180FF1F99
S11315D05320DFF8101808704E20DFF80818487000
S11315E04420DFF8001888703E20DFF8F817C87030
S11315F0DFF8F4070088DFF8EC178880DFF8EC07E1
S1131600DFF8E0170861DFF8E807DFF8D8170862A9
S1131610DFF8E007DFF8CC170863DFF8DC07DFF852
S1131620C4174861DFF84809DFF8B8174862DFF8E3
S11316304409DFF8B01748634FF47A70DFF8A41751
S113164008814FF4FA60DFF89C17088340F6B8303D
S1131650DFF89017088542F20770DFF88817488191
S113166042F20870DFF87C17488342F20970DFF811
S1131670741748856F20DFF86C178881DE20DFF847
S11316806417888340F24D10DFF85817888540F2BC
S11316909A20DFF85017C88040F27710DFF844171B
S11316A0088740F6B830DFF83C1748870320DFF896
S11316B03417C8870320DFF82C17A1F84000022054
S11316C0DFF8201781F842000020DFF8181781F8AE
S11316D043000920DFF80C1781F844000020DFF8EC
S11316E0101A0870704770B588B000A8DFF8CC18DD
S11316F0202201F077FADFF8C8080068DFF8C41880
S113170008604FF40062DFF8C008016800A802F026
S1131710AEF80400DFF8B0080668DFF8A838042241
S1131720DFF8A408016800A802F0FCF80500361DE3
S1131730002D06D1DFF8BC391822310000A802F0D0
S1131740A8F908B070BD002101704FF4B471418054
S11317504FF4FA518180012181710121C171642109
S1131760017248F2E801C160DFF88C1901610021BF
S113177001750321C182704780B500F0A1F902F020
S1131780DFF900F03BFB01BD80B5DFF84008DFF86E
S11317906C1908603A2001F0B7FE002002F054FAF8
S11317A0152001F0B1FE01BD0C710340DFF82008E3
S11317B0DFF820180860DFF82008DFF82018086038
S11317C0DFF83C09007850F00200DFF834190870A3
S11317D070470000B492FF1F2092FF1F2DE9F041D3
S11317E088B072B6DFF81C090078DFF818190870A1
S11317F04F20B24908705020B04948705420AF4976
S11318008870DFF8E4050088AC4988801920AB496A
S1131810C8705020894908704E2088494870472074
S113182086498870DFF8C0050088844988800124CF
S1131830002500A8DFF8D018202201F0D3F900A871
S113184002F002F80422DFF87C17DFF87C07006856
S113185002F06CF9DFF8B4080068DFF8641709686F
S1131860884207D0DFF85C070068DFF8541709687E
S1131870884201D0012600E00026DFF84407006812
S1131880DFF888180860F6B2002E04D0DFF8640888
S1131890FFF759FF08E01822DFF85818DFF8280787
S11318A00068001D02F042F9FFF792FE02F04CFAC4
S11318B000F0B4FE804601F0D3FBDFF85428DFF8D3
S11318C05418DFF8540802F0CBFE01F0C9F903F014
S11318D0E2FF5FF4E13004F08BF8DFF8400804F035
S11318E071F801F00BFCDFF83818087001F006FC01
S11318F0DFF83018087004F09FF900F039F862B688
S11319000A273800471E002805D00020401E80B258
S11319100028FBD1F5E7FFF7E6FE0020DFF8EC171F
S113192008600020DFF8001808700020DFF8D417E2
S113193008700020DFF8F41708700020DFF8F017B3
S11319400870DFF8F007DFF8F0170860DFF8EC073D
S1131950DFF8EC1708600020DFF8E81708700020B3
S1131960DFF8E417087008B0BDE8F0819992FF1F12
S11319700020DFF8D81708700F20DFF8D41708709C
S11319801720DFF8D01708707320DFF8CC17087021
S11319901420DFF8C81708700020DFF8C417087097
S11319A00020DFF8C01708700020DFF8BC170870AB
S11319B00020DFF8B81708700020DFF8B4170870AB
S11319C00020DFF8B01708700020DFF8AC170870AB
S11319D00020DFF8A81708700020DFF8A4170870AB
S11319E00020DFF8A01708700020DFF89C170870AB
S11319F0704738B5DFF89407DFF8E4130860DFF8C0
S1131A009007DFF8901708607B20DFF888170968D3
S1131A100870002000F0FEFEDFF83407007800F0C4
S1131A2085FE0400DFF82C07007800F0B3FE050003
S1131A30DFF82407007800F0D9FE31BDF891FF1FCC
S1131A40F991FF1FFA91FF1FFC91FF1F3990FF1FAF
S1131A503A90FF1F3B90FF1F3C90FF1F3E90FF1FDB
S1131A604090FF1F4290FF1F4490FF1F4890FF1FAC
S1131A704C90FF1F5090FF1F5290FF1F5490FF1F68
S1131A805890FF1F5C90FF1F6090FF1F6290FF1F24
S1131A906490FF1F6890FF1F6C90FF1F7090FF1FE2
S1131AA07290FF1F7490FF1F7690FF1F7890FF1FA6
S1131AB07A90FF1F7B90FF1F7C90FF1F8891FF1F70
S1131AC080B5DFF85C06007801F0B0FBDFF854065F
S1131AD0007801F0ABFBDFF84806007801F024FB46
S1131AE0DFF84006007801F01FFB04F06CF90820D1
S1131AF002F0A4FD02F06AF8DFF89C060068DFF843
S1131B009C160860DFF898060068DFF890164860B5
S1131B10DFF890060068DFF884168860DFF888062E
S1131B200068DFF87816C860DFF880060068DFF820
S1131B306C160861DFF878060068DFF8781608602C
S1131B40DFF874060068DFF86C164860DFF86C068E
S1131B500068DFF860168860DFF864060068DFF864
S1131B605416C860DFF85C060068DFF85C1608608D
S1131B70DFF858060068DFF850164860DFF85006B2
S1131B800068DFF844168860DFF848060068DFF86C
S1131B903816C860DFF840060068DFF840160860B1
S1131BA0DFF83C060068DFF834164860DFF83406D6
S1131BB00068DFF834160860DFF830060068DFF8E4
S1131BC028164860DFF828060068DFF81C168860CD
S1131BD0DFF820060068DFF81016C860DFF8180682
S1131BE00068DFF818160860DFF814060068DFF8EC
S1131BF00C164860DFF80C060068DFF800168860F1
S1131C00DFF804060068DFF8F415C860DFF8FC05A7
S1131C100068DFF8E8150861DFF8F4050068DFF80C
S1131C20F4150860DFF8F0050068DFF8E81548608F
S1131C30DFF8E8050068DFF8DC158860DFF8E00508
S1131C400068DFF8D015C860DFF8D8050068DFF851
S1131C50C415086140F20310DFF87C15086040F2F7
S1131C600310DFF87C15086040F20110DFF8B815A6
S1131C70086040F20110DFF8B415086040F201106A
S1131C80DFF8AC15086040F20310DFF8A81508600F
S1131C9040F20310DFF8A01508600320DFF80415F4
S1131CA008604FF48070DFF8241508604FF48070EA
S1131CB0DFF81C1508604FF48070DFF81815086011
S1131CC0DFF84C05006850F00400DFF844150860A4
S1131CD0DFF84C05006850F00800DFF84415086090
S1131CE0DFF83C05006850F01000DFF83415086098
S1131CF0DFF82805006850F02000DFF820150860A0
S1131D00DFF81805006850F04000DFF8101508608F
S1131D10DFF80805006850F08000DFF8001508605F
S1131D20DFF81805006850F00400DFF810150860AB
S1131D30DFF80C05006850F02000DFF80415086097
S1131D40DFF8FC04006850F04000DFF8F414086089
S1131D50DFF8EC04006850F08000DFF8E414086059
S1131D600020DFF8E0140870DFF8DC04DFF87414F6
S1131D700860DFF8D804DFF874140860DFF8D004D2
S1131D80DFF86C1408600220DFF868140860DFF8DC
S1131D906403C18A482001F061FF0120DFF8B41414
S1131DA0087001BD8991FF1F8A91FF1F8B91FF1F4E
S1131DB08C91FF1F9091FF1F9291FF1F9491FF1F21
S1131DC09691FF1F9791FF1F9891FF1F9C91FF1FF2
S1131DD0A091FF1FA491FF1FA691FF1F8692FF1FD2
S1131DE02092FF1F3890FF1F8492FF1F47F41000BA
S1131DF08EE82100D5DC3200C76B9F0680B501F068
S1131E006AFF0020DFF84C140870DFF8DC03006878
S1131E10DFF8D0130860DFF8D0034068DFF8CC1394
S1131E200860DFF8C4038068DFF8C4130860DFF8D3
S1131E30B803C068DFF8BC1308601020DFF804148E
S1131E400870DFF858030068DFF84C130860DFF807
S1131E504C034068DFF848130860DFF840038068EB
S1131E60DFF840130860DFF83403C068DFF8381384
S1131E700860DFF828030069DFF82C130860DFF836
S1131E807C030068DFF870130860DFF870034068B3
S1131E90DFF86C130860DFF864038068DFF864130C
S1131EA00860DFF85803C068DFF85C130860DFF8E7
S1131EB04C030069DFF854130860DFF85803006826
S1131EC0DFF84C130860DFF84C034068DFF8481370
S1131ED00860DFF840038068DFF840130860DFF82B
S1131EE03403C068DFF838130860DFF8280300699A
S1131EF0DFF830130860AF480068AD490860AD48AA
S1131F004068AD490860AB488068AC490860A9489E
S1131F10C068AB490860AC480068AA490860AA4890
S1131F204068AA490860A8488068A9490860A6488A
S1131F30C068A8490860A9480068A7490860A7487C
S1131F404068A749086001F013FE032002F076FB05
S1131F5003F0CCFEC049086001F0D0F87049087065
S1131F6001F0CCF86F4908700120BC49087001BD2C
S1131F708ED73E0D5543DE1380B5B94803F0F0FC0F
S1131F8078480078002804D0B548007800F028F894
S1131F9002E001205649087001BD0121B14A1170C7
S1131FA070470121B04A11700221504A11707047E4
S1131FB0AE4908700121AE4A11707047946A00005E
S1131FC0D86B00002C92FF1FDC6B0000AC6B000090
S1131FD0546B00001492FF1F486B00001892FF1FFF
S1131FE00121A44A11700021414A1170C0B20100BC
S1131FF0612934D06D2965D06E2956D0712914D049
S113200072290ED0732937D0742906D0772919D0B4
S1132010782944D07A293CD061E000214B4A1170E0
S113202063E00121494A11705FE049490978491C7C
S1132030474A1170464909781B2902DB0B21444A9F
S1132040117052E042490978491E414A11704049D1
S113205009780B2902DA1A213D4A117045E03D49FD
S11320600978491C3B4A11703A490978202902DB56
S11320700321384A117038E036490978491E354A37
S1132080117034490978032902DA1F21314A117089
S11320902BE031490978491C2F4A117025E02E495B
S11320A00978491E2C4A11701FE02C490978491CF3
S11320B02A4A1170294909787C2902DB0121274A1F
S11320C0117012E025490978491E244A11702349E8
S11320D00978002902D17B21204A117005E00121F1
S11320E0034A11700021634A117070479792FF1FD1
S11320F0A692FF1FA891FF1F888402001C92FF1F55
S113210000E007409192FF1F946A00004492FF1F71
S11321108090FF1F786B00005480FF1F791F000020
S11321204F80FF1F5080FF1F9092FF1F9492FF1F4C
S11321309592FF1FC46B00000C92FF1FBC6B000044
S11321401092FF1FAF92FF1FB092FF1F9F92FF1FBD
S1132150A192FF1FA292FF1FA392FF1FA492FF1F31
S1132160A592FF1FA892FF1FA992FF1FAA92FF1F0B
S1132170AB92FF1FAC92FF1FAD92FF1FAE92FF1FE9
S1132180A092FF1FB292FF1FB392FF1FB88FFF1FD1
S1132190348FFF1F2492FF1F00900440C890FF1F3C
S11321A004900440089004400C90044010900440B3
S11321B028A00440E890FF1F2CA0044040A0044045
S11321C044A0044010B004400891FF1F14B0044020
S11321D018B004401CB0044000D004402891FF1FF4
S11321E004D0044034800440D891FF1F3880044058
S11321F03C8004404080044000F00F404891FF1FA1
S113220040F00F4080F00F40C0F00F4000F10F404D
S113221014F00F406891FF1F54F00F4094F00F40EA
S1132220D4F00F4014F10F4000B0044004B0044057
S11322300CB004400CC0044010C0044008F00F402F
S113224088F00F4000D00740300010F082010400F5
S1132250010000409692FF1F4C92FF1FB192FF1F96
S11322609E92FF1F9A92FF1F9B92FF1F9D92FF1F3A
S11322709C92FF1FA792FF1F10B5040000F09BFD66
S113228010BD10B450F8041B81B102681218001D6F
S113229050F8043BDC0744BFA9F10104E31852F8E9
S11322A0044B43F8044B091FF9D1EBE710BC70470A
S11322B070B56148006850F000605F4908605F488D
S11322C0006850F400505D49086000F073F8002085
S11322D05B49086000205B49086000205A49086097
S11322E000205A49086000205949086000205949D3
S11322F008605948006850F016005749086057486C
S1132300006840F2F9110843544908600F20544909
S113231008605348006850F04000514908604E4836
S113232000680006FBD44E480068400601D5002032
S11323303FE04C4800684C4909684C4A12684C4BD1
S11323401B684C4E366808181018181830184A497B
S1132350096808180500ADB2022095FBF0F5ADB28E
S113236055F40040454908604548006845490968F6
S1132370454A1268454B1B68454E366808181018C4
S1132380181830184349096808180400A4B2022038
S113239094FBF0F4A4B254F400403F4908600020D8
S11323A03E49086019202D49086000202C49086026
S11323B0012070BD002029490860002038490860C8
S11323C0002038490860002037490860002033495C
S11323D0086000202249086070471F480068000612
S11323E001D5012000E00020704700202C4908603E
S11323F00720194908607047002029490860042013
S113240015490860704700202549086005201249D5
S11324100860704700202249086006200E490860C1
S1132420704700201E49086016200B490860704759
S11324301E480068704700003C8004403880044017
S113244018C004401CC0044040D0044044D00440A0
S113245048D004404CD0044000B0034008B00340CE
S113246024B003404CB0034048B0034044B00340A0
S113247040B003403CB0034038B003402CB00340AC
S11324806CB0034068B0034064B0034060B00340E4
S11324905CB0034058B0034030B0034020B0034068
S11324A00CB0034018B003401CB0034010B003400C
S11324B070B5040000250026DFF8D806007810F077
S11324C00100002802D07D20060001E07B200600E8
S11324D0002C03D02078F6B2864201D2022028E0F4
S11324E0DFF8B0060078C0F34000C0B2002801D184
S11324F004201EE0DFF8A0060078002801D00120A7
S113250017E0200000F0D9F9DFF8901608600022E7
S11325100121DFF88806006803F09CFC0500EDB299
S1132520002D05D10120DFF870160870002000E0AE
S1132530032070BD2DE9F04104000D0000265FF07A
S11325400008DFF85006007810F00100002804D0DD
S11325507D208046201D070003E07B208046A01CD0
S11325600700002C04D020785FFA88F8804501D257
S1132570022040E0DFF81C060078C0F34000C0B23F
S1132580002801D1042036E0DFF80C06007800288A
S113259001D001202FE0DFF80816380003F0CCFC4E
S11325A00600F6B2002E25D1002D10D0DFF8F40578
S11325B00560DFF8F005006800F071F9DFF8D40574
S11325C0007850F01000DFF8CC15087007E0DFF851
S11325D0C405007810F0EF00DFF8B815087001208A
S11325E06070DFF8B80504600220DFF8AC150870ED
S11325F0002000E00320BDE8F0810100DFF894052D
S11326000078C0F34000C0B2002801D1042004E0E7
S1132610DFF88C05007908700020704780B501F060
S11326207BFF01F0AAFF01F0C1FF322001F024F882
S113263001F0C3FF01F07DFF0028FBD03C2000F037
S113264063FF0A213C2000F0E0FF01F082FF032039
S113265001F0F4FF322001F00FF801F04DF803F01F
S113266077FD012003F050FD0B20DFF83C150870C6
S11326700020DFF8241508700020DFF82415087105
S11326800020DFF81C1508600020DFF82015087012
S11326901B20DFF81C150870DFF8F804007810F030
S11326A0FE00DFF8F0140870DFF8E804007810F09A
S11326B0FD00DFF8E0140870DFF8D804007810F0AB
S11326C0FB00DFF8D0140870DFF8C804007810F0BD
S11326D0F700DFF8C0140870DFF8B804007810F0D1
S11326E0EF00DFF8B0140870DFF8A804007810F0E9
S11326F0DF00DFF8A0140870DFF89804007810F009
S1132700BF00DFF890140870DFF88804007810F038
S11327107F00DFF880140870DFF87804007850F048
S11327200200DFF870140870002002BD38B5040000
S1132730E4B20B2C02DBE4B21B2C01DB022028E008
S1132740DFF850040078C0F34000C0B2002801D183
S113275004201EE0DFF840040078002806D0DFF8EB
S113276038040078042801D0012012E02000C0B20F
S113277003F09CFC050001F0F9FE3C2000F060FF32
S1132780EDB2002D04D1DFF820040470002000E035
S1132790032032BD38B50400E4B2202C02DAE4B2DE
S11327A0032C01DA022020E0DFF8E8030078C0F30C
S11327B04000C0B2002801D1042016E0DFF8D8039D
S11327C00078002806D0DFF8D0030078042801D070
S11327D001200AE02000C0B203F08CFC0500EDB239
S11327E0002D01D1002000E0032032BD10B504000B
S11327F0DFF8A4030078002806D0DFF89C030078F3
S1132800042801D0012004E02000C0B203F0ABFD95
S1132810002010BDDFF87C13097860F30001DFF8B5
S113282074231170704738B50120DFF88C130978D0
S11328300B3988400500DFF87C03008805420BD182
S1132840ADB2002D08D0DFF870030078401CDFF82B
S1132850681308706D00EEE7DFF85C0300781B284E
S113286001D102201AE0DFF85003007803F01EFCC7
S11328700400E4B2002C0FD1DFF818030078C0F391
S11328808010C0B2002803D0002003F0B1FB05E0A3
S1132890012003F0ADFB01E02000C0B232BD10B551
S11328A082B0040000A803F0BDFD0098211D0818A3
S11328B0009000A803F05FFD13BD01000800B54AB5
S11328C0127812F00102002A08D108000278921C42
S11328D002707E224270FF22827003E08A1C100084
S11328E00A7802700278921C0270704780B5AA4878
S11328F00078012811D1A748007810F001000028C1
S113290004D1A64800680178891E01700020FFF7F1
S113291044FB0020A049087013E09F480078042875
S11329200FD19C480078C0F3C000C0B2002808D082
S1132930092000F0A1FE00220121A048006803F054
S113294089FA01BD10B59348007810F00100002801
S113295005D1924800688178891E817005E08F480E
S113296000688E490968097981708A48007810F0F6
S1132970010000280FD189480068C0787E2806D15C
S1132980864800680079FF2801D1012000E000207A
S1132990C0B2002807D08148006800787F490968E0
S11329A08978884223D27E497C480068801C03F0E1
S11329B0C3FA0400E4B2002C0BD176480078C0F3CB
S11329C00010C0B200281FD076480068FFF767FFE8
S11329D01AE0042071490968487003F000FD6F484B
S11329E00068FFF7DEFA00206B4908700CE0022053
S11329F06A490968487003F0F2FC68480068FFF708
S1132A00D0FA00206449087010BD70B50400634812
S1132A10006869490978081800F80B4C6648007882
S1132A20401C65490870FFF7FEFE0500EDB2002D5D
S1132A3014D01B205E4908705B48007803F036FB15
S1132A4006005B480078FFF7B3FA5248007810F0AC
S1132A50DF005049087000204F49087070BD38B538
S1132A6004004C480078C0B2C009C0B2002808D0A5
S1132A704E4804704748007810F07F0045490870BC
S1132A8034E044480078C0F38010C0B200282DD050
S1132A9046480078E4B2844205D24448047046486B
S1132AA00078434908703D4800684349097808188C
S1132AB000F80B4C40480078401C3F490870FFF771
S1132AC0B2FE0500EDB2002D10D039480078FFF7B2
S1132AD06FFA3548007803F0E9FA2E49097811F0C5
S1132AE0BF012C4A117000212B4A117031BD10B561
S1132AF029480078022817D1294928480068801CF1
S1132B0003F01AFA0400E4B2002C34D00420234960
S1132B100968487003F063FC20480068FFF741FA35
S1132B2000201D49087026E01B480078012806D1C2
S1132B30002201211948006803F08CF91BE01648B3
S1132B400078032802D1FFF76EFE14E011480078E4
S1132B50C0B2C009C0B200280DD0002003F048FA6A
S1132B60002808D0FF20114908700A48007810F0A6
S1132B707F000849087010BD80B503200749096823
S1132B80487006480068FFF70CFA002002490870F4
S1132B9001BD00007492FF1FB792FF1F7092FF1FC8
S1132BA00092FF1F6892FF1FB892FF1FB692FF1F8B
S1132BB0BA92FF1F8892FF1FB992FF1F6C92FF1FEA
S1132BC0704750F8041B61B150F8042BD30744BF7D
S1132BD0A9F101039A18002342F8043B091FFAD112
S1132BE0EFE77047103A07D330B4B1E83810103A21
S1132BF0A0E83810F9D230BC530724BFB1E808105C
S1132C00A0E8081044BF51F8043B40F8043BD20745
S1132C1024BF31F8022B20F8022B44BF0B78037039
S1132C207047083A07D3B1E80810083A40F8043B63
S1132C3040F804CBF7D25307E4E770B504000D0065
S1132C400026F6B254F82600002807D00121F6B277
S1132C5054F8260003F024FC761CF2E770BD000053
S1132C6080B5DFF87403006850F48050DFF868130F
S1132C700860DFF86803006830F4E060DFF85C1394
S1132C800860DFF85803006850F48070DFF84C13D4
S1132C900860DFF84C03006830F4E060DFF84013AC
S1132CA00860DFF83C03006850F48070DFF83013EC
S1132CB00860DFF83003006850F01800DFF82413D0
S1132CC00860DFF82403006850F01800DFF81813D8
S1132CD0086000F013FADFF81413087001BDC1078F
S1132CE007D5DFF80C13096851F01001DFF8002351
S1132CF01160810707D5DFF8F812096851F0200147
S1132D00DFF8EC221160410705D5B949096851F093
S1132D104001B74A1160010705D5B549096851F06A
S1132D208001B34A11607047C10705D5B1490968EC
S1132D3051F01001AF4A1160810705D5AD4909680A
S1132D4051F02001AB4A1160410705D5A949096832
S1132D5051F04001A74A1160010705D5A54909684A
S1132D6051F08001A34A11607047C10705D5A249FB
S1132D70096851F01001A04A1160810705D59E49E8
S1132D80096851F020019C4A1160410705D59A4910
S1132D90096851F04001984A1160010705D5964928
S1132DA0096851F08001944A1160704780B50F2082
S1132DB0FFF7BAFF01BD80B504210F2000F04FF8E2
S1132DC001BD10B504008D48007820438B4908707C
S1132DD00FF2791264218548007800F00FFA10BDD3
S1132DE038B5040000200500EDB2042D0BDA0120F3
S1132DF0A8402100C9B2014203D002208049EDB2AB
S1132E0068546D1CF0E72000C0B2FFF7DAFF31BD53
S1132E1010B504002000C0B2FFF786FF77480078A1
S1132E20A0437649087075480078002803D16F489C
S1132E30007800F0FBF910BD80B50020FFF7C1FF5A
S1132E40FFF7B4FF6A48006850F010006849086052
S1132E5003206A49087001206A49087001BD38B529
S1132E6004000D00EDB2012D01D10420050000F095
S1132E7032F8EDB2002D04D12000C0B2FFF7A1FF5B
S1132E8028E0EDB2022D04D12000C0B2FFF7A8FF64
S1132E9020E05C480078002803D15848007820429C
S1132EA003D02000C0B2FFF7B3FFEDB2032D03D16E
S1132EB02000C0B2FFF713FFEDB2042D03D12000B0
S1132EC0C0B2FFF731FFEDB2052D03D12000C0B22F
S1132ED0FFF74BFF31BD80B54A48007800280BD07E
S1132EE0002046490870FFF761FF4048007800F071
S1132EF09DF900204349087001BD10B5002004006D
S1132F00E4B2042C19DA3E48E4B2205C002812D062
S1132F103B48E4B2205C401E3949E4B2605438486E
S1132F20E4B2205C002806D1344800780121A14095
S1132F30884332490870641CE2E73048007800286E
S1132F4003D12A48007800F071F910BD10B50400CF
S1132F502A480078C00705D52748006850F01000BB
S1132F602549086025480078800705D5224800686F
S1132F7050F020002049086020480078400705D51B
S1132F801D48006850F040001B4908601B48007849
S1132F90000705D51848006850F0800016490860FD
S1132FA0FFF7ABFF17480078002814D013480078C7
S1132FB040001249087011480078C0060BD50F482C
S1132FC0007810F00F000D4908700C48007850F09C
S1132FD001000A49087010BD3880044010C0044044
S1132FE00CC00440D4F00F40C0F00F404E80FF1FCF
S1132FF0C8F00F40C4F00F40CCF00F408F92FF1F79
S11330000892FF1F8E92FF1FDFF8BC14C0B2405C11
S113301010F0E0007047DFF8B024C0B2825C12F018
S11330201F020A43DFF8A034C0B2C2547047DFF86D
S11330309814C0B2405C10F01F007047DFF8882479
S1133040C0B2825C12F0E0020A43DFF87C34C0B202
S1133050C2547047DFF874140968C90948437047BB
S113306010B52A2000F050FA03212A2000F0CDFAEE
S1133070DFF85C04006850F08070DFF854140860D6
S1133080DFF850040068002801D1012000E000208E
S1133090C0B20020DFF83C140860DFF83C0400688C
S11330A0002801D1012000E00020C0B2DFF82C0488
S11330B0006850F00400DFF824140860DFF81C04F2
S11330C0006840084000DFF8141408600020DFF8AE
S11330D0101408605020DFF8001408604FF6FF74E5
S11330E00820FFF7B7FF201ADFF8F8130880042040
S11330F0FFF7B0FFDFF8F013086010BD10B5002033
S11331000400222C0ED2DFF8C003205C002807D173
S113311080212000C0B2FFF77EFF2000C0B202E091
S1133120641CEEE7FF2010BD10B504002000C0B2FF
S113313000F07CF80020DFF89013E4B2605410BD76
S113314080B5DFF890030068000607D5DFF8840334
S1133150006830F08000DFF87C130860DFF8780343
S11331600068000609D5DFF87003006830F08000BD
S1133170DFF86413086000F092F801BD2DE9F04116
S113318004000D0016001F00DFF83C03E4B2205CCD
S1133190002802D0E4B2FF2C00D12DE02000C0B200
S11331A000F044F83000FFF755FF8046B8F1000FF7
S11331B001D1012080462900C9B22000C0B2FFF726
S11331C03DFFDFF82C03E4B20C2101FB0400C0F83E
S11331D00080DFF81C03E4B20C2101FB0400C0F8FA
S11331E00480DFF80C03E4B20C2101FB04008760C7
S11331F02000C0B200F03DF9BDE8F08170B50400D4
S11332000D00160033002A0002212000C0B2FFF78F
S1133210B5FF70BD70B504000D00160033002A0020
S113322001212000C0B2FFF7A9FF70BD70B50400F2
S113323000F000FA06002000C0B2FFF7E5FE05002A
S1133240EDB2202D02D0EDB2402D24D180212000FA
S1133250C0B2FFF7E0FE2000C0B2FFF7E8FEC006F0
S113326008D5DFF890020078401EA2490870A148F2
S1133270007806E09D480078401E9C4908709B48F1
S113328000789A480078002805D19A4800780028E8
S113329001D100F004F8300000F0C9F970BD2DE947
S11332A0F84F00F0C7F982469348006883465046B9
S11332B000F0BDF991480088BBEB000007008F487F
S11332C0A0F800B0002081465FFA89F9B9F1220F15
S11332D063D200F0AFF982464846C0B2FFF794FECD
S11332E00600F6B2402E08D120214846C0B2FFF7AE
S11332F092FE504600F09BF94CE0504600F097F9DE
S1133300F6B2202E46D1BFB279485FFA89F90C2172
S113331001FB09004068874210D275485FFA89F9B9
S11333200C2101FB09004068BFB2C01B70495FFA61
S113333089F90C2202FB091148602BE04846C0B20F
S1133340FFF775FE8DF800009DF800000D2108427E
S113335004D04846C0B2FFF769FF0DE064485FFA45
S113336089F90C2101FB0900006861495FFA89F9B8
S11333700C2202FB091148605D485FFA89F90C21AF
S113338001FB0900806805002800002802D0484697
S1133390C0B2A84719F1010996E752480088040011
S11333A0002081465FFA89F9B9F1220F1AD2484602
S11333B0C0B2FFF729FE202811D14D485FFA89F9E0
S11333C00C2101FB09004068A4B2A04207D248487E
S11333D05FFA89F90C2101FB09004068040019F126
S11333E00109DFE700F026F9824643480068804679
S11333F0B8EB0B081FFA88F8A4B2A04505D33A48E5
S1133400006810EB080004000DE0A4B21FFA88F86D
S1133410B4EB080034490968884204D23248006891
S113342010EB080004001BEB0404A4B2344804604D
S1133430504600F0FCF82D48007800280AD12D48A9
S11334400078002806D100202249086000202D4978
S113345008700CE02B480078002808D11D4800684B
S113346050F00F001B490860012026490870BDE890
S1133470F18F38B5040000F0DDF805002000C0B27B
S1133480FFF7C2FD80281BD12000C0B2FFF7CFFD9B
S1133490C00607D517480078401C1649087015481F
S11334A0007806E011480078401C104908700F4865
S11334B0007840212000C0B2FFF7ADFDFFF7EFFE1A
S11334C0280000F0B4F831BDA490FF1F4880FF1F0E
S11334D03C800440008003400C800340548003403F
S11334E0088003408C92FF1F7892FF1FBB92FF1F3E
S11334F0D08BFF1FBC92FF1F048003408A92FF1FE2
S113350010800340BD92FF1F10B401005C2901DB51
S1133510002045E0202091FBF0F00200002A03D0B7
S1133520022A27D013D338E00120202391FBF3F49F
S113353004FB1314A040474B18600120202391FB87
S1133540F3F404FB1314A040434B186027E001205C
S1133550202391FBF3F404FB1314A0403F4B1860A9
S11335600120202391FBF3F404FB1314A0403C4BF3
S1133570186014E00120202391FBF3F404FB1314DE
S1133580A040384B18600120202391FBF3F404FB86
S11335901314A040344B186001E0002000E0012027
S11335A010BC704710B401005C2901DB00202AE044
S11335B0202091FBF0F00200002A03D0022A15D04B
S11335C00AD31DE00120202391FBF3F404FB131420
S11335D0A040264B186015E00120202391FBF3F452
S11335E004FB1314A040224B18600BE0012020239D
S11335F091FBF3F404FB1314A0401E4B186001E08C
S1133600002000E0012010BC704702005C2A01DBAE
S113361000200BE0102901DB002007E002F16040EC
S113362010F564400300080118700120704780F30E
S1133630108870470020EFF31081080072B67047BD
S1133640012110F01F029140024AC0B2430942F81E
S11336502310704780E200E000E100E084E200E033
S113366004E100E088E200E008E100E080E100E03D
S113367084E100E088E100E0DFF8B010096851F06F
S11336800101DFF8A8201160DFF8A41009684908D7
S11336904900DFF89C20116080B2DFF898100860C0
S11336A00521DFF894201160DFF88410096851F0D7
S11336B00101DFF87C201160DFF874100968090645
S11336C0FAD5DFF86C10096849084900DFF8602072
S11336D01160DFF85810096849084900DFF84C20E8
S11336E011607047D2B2002A05D00B780370401CD9
S11336F0491C521EF6E7704780B502F0F7FA0F49ED
S113370008600E4800684FF47A7148430C49086019
S11337100B4800680B490968C1F30361491CB0FBFD
S1133720F1F00949086001BD000000003880044040
S11337300000044008000440040004404C92FF1FB1
S11337404892FF1F448004405092FF1FF0B40300CE
S1133750002630001E6836783606FBD570261F68B2
S11337603E7000263400C9B2E4B2A14252D3E4B29E
S1133770002C11D0022C19D013D3042C20D01AD32E
S1133780062C27D021D3082C2ED028D30A2C35D0B0
S11337902FD30B2C37D03BE0E4B2A65C1F68FE713C
S11337A036E0E4B2A65C1F68BE7131E0E4B2A65C08
S11337B01F687E712CE0E4B2A65C1F683E7127E0AE
S11337C0E4B2A65C1F68FE7222E0E4B2A65C1F6845
S11337D0BE721DE0E4B2A65C1F687E7218E0E4B21B
S11337E0A65C1F683E7213E0E4B2A65C1F68FE7319
S11337F00EE0E4B2A65C1F68BE7309E0E4B2A65C06
S11338001F687E7304E0E4B2A65C1F683E73FFE7A2
S1133810641CA8E780261F683E701E68367836064A
S1133820FBD51E6836783500AE0602D50426300076
S113383008E0EE0602D50826300003E0EE0701D5C5
S113384010263000F0BC7047DFF8CC120968DFF8AE
S1133850C8221160DFF8C412096851F00101DFF8D1
S1133860BC221160002101610021C16170472DE972
S1133870F8430400894615000020060015EB0900F2
S113388007006068814504D36068A1680818B842DD
S113389011D2E068814504D3E06821690818B84270
S11338A001D202203CE0E068B9EB000010F5000909
S11338B00020804605E06068B9EB00094FF4006021
S11338C08046B9FBF8F008FB1090002802D04FF4B2
S11338D0807025E0B5FBF8F008FB1050002801D0FB
S11338E001201DE0002D1AD009208DF800005FEAA8
S11338F019408DF801005FEA19208DF8020048464E
S11339008DF8030000AA03212000FFF71FFF060023
S1133910002E04D1B5EB080518EB0909E2E73000E5
S1133920BDE8F2832DE9FE4F04008B4692461D004C
S113393002A87B490A6802605FF0000900200600C3
S11339401AEB0B0007005FEA9B008000584505D086
S11339505FEA9B0B5FEA8B0B1BF1040B0420BAFBA1
S1133960F0F101FB10A189465FFA89F9B9F1000F62
S113397008D05FFA89F9BAEB090A1AF10400694917
S1133980086002E06748C0F800A06068834504D37B
S11339906068A1680818B8420FD2E068834504D370
S11339A0E06821690818B84201D202206FE0E0689B
S11339B0BBEB000010F5000B02E06068BBEB000BF2
S11339C0BAF1000F27D006208DF800005FEA1B40F3
S11339D08DF801005FEA1B208DF8020058468DF82F
S11339E00300E8788DF80400A8788DF8050068785D
S11339F08DF8060028788DF8070000AA072120001A
S1133A00FFF7A4FE0600002E05D11BF1040BBAF14A
S1133A10040A2D1DD4E75FFA89F9B9F1000F35D0F6
S1133A20002080465FFA88F85FFA89F9C84509D210
S1133A3028786D1C02A95FFA88F808F8010018F1CB
S1133A400108EFE706208DF800005FEA1B408DF8BF
S1133A5001005FEA1B208DF8020058468DF8030030
S1133A609DF80B008DF804009DF80A008DF8050000
S1133A709DF809008DF806009DF808008DF80700F0
S1133A8000AA07212000FFF761FE06003000BDE810
S1133A90FE8F2DE9F84F04008B4615001E001BF025
S1133AA0030800A820490A6802605FFA88F8B8F1A0
S1133AB0000F28D05FEA9B0B5FEA8B0B00A88246BD
S1133AC0DBF80000CAF80000D8F104000700FFB2D8
S1133AD0042F06DA3078761C00A9FFB278547F1CD4
S1133AE0F5E700AB042259462000FFF71BFF81468F
S1133AF0B9F1000F01D048460BE01BF1040B5FFA4B
S1133B0088F8B5EB080533002A0059462000FFF772
S1133B1009FFBDE8F28F0000448004403C8004406B
S1133B20E06B00005892FF1FE06B000013005A1E68
S1133B30002B04D00378401C0B70491CF6E7704737
S1133B40DFF8E001007810F0E00050F00400DFF846
S1133B50D41108700120DFF8D0110870DFF8C0011B
S1133B60006850F00400DFF8B811086030BF7047F7
S1133B7038B5FFF75FFD04003D2000F0B8FA0500FA
S1133B8055F00205EDB2E80617D455F010052900EA
S1133B90C9B23D2000F03CF93D2000F0A8FA8006AF
S1133BA0FAD5012000F0A3FA10F009000928F8D191
S1133BB00121012000F02CF904E02900C9B23D20C4
S1133BC000F026F92000FFF732FD31BDF8B5FFF70C
S1133BD031FD0400032000F08AFA050007200542A5
S1133BE023D0032000F083FA0721084212D02420B6
S1133BF000F07DFA1F2108420CD015F0F8052900C9
S1133C00C9B2032000F004F9242000F070FA1F2147
S1133C100842F9D1002000F06AFA060056F00106C5
S1133C203100C9B2002000F0F3F83D2000F05FFA43
S1133C30070017F0EC073900C9B23D2000F0E8F89E
S1133C402000FFF7F4FCF1BDDFF8E0100978012251
S1133C5082401143DFF8D4201170704770B504001E
S1133C600D00FFF7E7FC0600DFF8C400006850F021
S1133C700100DFF8BC100860DFF8B80000684008F5
S1133C804000DFF8B0100860002D06D02800401E68
S1133C9080B2DFF8A410086004E0280080B2DFF8E6
S1133CA098100860DFF894000560E4B254F0010055
S1133CB0DFF88C100860C420DFF878100860DFF8A3
S1133CC07400006850F00100DFF8681008603000EC
S1133CD0FFF7ADFC70BD10B5FFF7ACFC0400154850
S1133CE00068C00712D513480068000603D50020F9
S1133CF0124908600AE013480068124908600F4836
S1133D00006810490968401A0C49086009480068AD
S1133D1040084000074908602000FFF788FC10BDF8
S1133D2010ED00E001E0074002E0074004C0074056
S1133D303880044000000440080004406492FF1FDF
S1133D40040004400C000440DFF87C08006850F4D0
S1133D508060DFF874180860DFF87008006850F4B9
S1133D600050DFF868180860DFF86408006830F471
S1133D70E060DFF85C180860DFF85408006850F46D
S1133D800070DFF84C180860DFF84808006830F469
S1133D90E060DFF840180860DFF83808006850F485
S1133DA00070DFF830180860DFF82C08006830F481
S1133DB0E060DFF824180860DFF81C08006850F49D
S1133DC00070DFF814180860DFF81008006830F499
S1133DD0E060DFF808180860DFF80008006850F4B5
S1133DE00070DFF8F8170860DFF8F407DFF8F4175D
S1133DF00860DFF8F407DFF8F4170860DFF8F0076D
S1133E00DFF8F01708600020DFF8EC17086070474F
S1133E10F8B504000D00FFF70DFC0700DFF8C40738
S1133E20006850F44060DFF8BC170860DFF8CC0786
S1133E300068DFF8CC170843DFF8C0170860E4B265
S1133E4014F03F000600DFF8BC070643DFF8B807AC
S1133E500660EDB22E00DFF8B4070643DFF8A807CA
S1133E600660DFF88007006840084000DFF8741738
S1133E700860DFF888070068C000FAD5DFF87C071F
S1133E800068DFF87C170843DFF870170860DFF874
S1133E905407006840F601410843DFF848170860FA
S1133EA03800FFF7C4FBF1BD2DE9F84304000D0011
S1133EB016005FF00008F6B2002E01D0002D00D1EC
S1133EC086E0FFF7B7FB8146DFF81807006850F477
S1133ED04060DFF810170860DFF820070068DFF89B
S1133EE020170843DFF814170860E4B214F03F0009
S1133EF00700DFF810070743DFF80C07076018F125
S1133F000108F6B2022E11DB5FFA88F8B8F1040F4B
S1133F100CDA287807006D1CDFF8E8060743DFF8A1
S1133F20E8060760761E18F10108EAE7DFF8B40630
S1133F30006840084000DFF8AC160860F6B2022EB4
S1133F4017DB287807006D1CDFF8B8060743DFF895
S1133F50AC0600680028FAD5DFF8A006006850F027
S1133F600040DFF898160860DFF89C060760761EAC
S1133F70E4E728780700DFF894060743DFF87C06B7
S1133F8000680028FAD5DFF87406006850F0004095
S1133F90DFF868160860DFF870060760DFF85C0673
S1133FA00068C000FAD5DFF854060068DFF8501640
S1133FB00843DFF848160860DFF82806006840F672
S1133FC001410843DFF81C1608604846FFF72FFB41
S1133FD0BDE8F1832DE9F04104000D000027EDB2A6
S1133FE0002D01D0002C00D17FE0FFF723FB804699
S1133FF0DFF8F005006850F44060DFF8E815086069
S1134000DFF8F8050068DFF8F8150843DFF8EC1569
S1134010086040200600DFF8EC050643DFF8E805F9
S113402006607F1CEDB2022D0EDBFFB2042F0BDA0B
S113403020780600641CDFF8CC050643DFF8C805C9
S113404006606D1E7F1CEDE7DFF8980500684008E8
S11340504000DFF890150860EDB2022D17DB2078E0
S11340600600641CDFF89C050643DFF89005006831
S11340700028FAD5DFF88405006850F00040DFF826
S11340807C150860DFF8800506606D1EE4E7207883
S11340900600DFF878050643DFF8600500680028AD
S11340A0FAD5DFF85805006850F00040DFF84C15E9
S11340B00860DFF854050660DFF840050068C000BA
S11340C0FAD5DFF83805006850F01040DFF82C15F9
S11340D00860DFF81005006840F601410843DFF886
S11340E0041508604046FFF7A2FABDE8F081F8B570
S11340F00400FFF79FFA0700DFF8E804006850F4B3
S11341004060DFF8E0140860DFF8F0040068DFF8CE
S1134110F0140843DFF8E4140860E4B214F03F003C
S113412050F080000500DFF8E8040543DFF8D80408
S11341300560DFF8E0040500DFF8CC040560DFF873
S1134140A404006840084000DFF898140860DFF811
S1134150AC040068C000FAD5DFF8A0040068DFF8FA
S1134160A0140843DFF894140860DFF878040068AA
S113417050F00100DFF86C140860DFF89C0400685C
S11341800600DFF86004006850F44060DFF854145F
S113419008603800FFF74BFA3000C0B2F2BD2DE9D9
S11341A0F04104000D001600F6B2002E01D0002DDF
S11341B000D189E0FFF73EFA8046DFF82804006862
S11341C050F44060DFF81C140860DFF83004006825
S11341D0DFF82C140843DFF824140860E4B214F068
S11341E03F0050F080000700DFF824040743DFF8A5
S11341F018040760DFF8EC03006840084000DFF8AB
S1134200E4130860DFF8F40300680028FAD5DFF847
S1134210EC03006850F00040DFF8E0130860DFF8BA
S1134220C403006850F48060DFF8B8130860F6B285
S1134230022E1BDB00200700DFF8D4030743DFF85E
S1134240C8030760DFF8B40300680028FAD5DFF874
S1134250AC03006850F00040DFF8A0130860DFF8FA
S1134260BC03006828706D1C761EE0E70020070080
S1134270DFF8A0030743DFF890030760DFF87C034F
S11342800068C000FAD5DFF89403006828706D1C3C
S1134290DFF868030068DFF868130843DFF85C138D
S11342A00860DFF84003006850F00100DFF83413C1
S11342B00860DFF83003006850F44060DFF824132E
S11342C008604046FFF7B3F9BDE8F081F8B5040093
S11342D00D00EDB2002D01D0002C00D185E0FFF7D8
S11342E0A9F90700DFF8FC02006850F44060DFF829
S11342F0F4120860DFF804030068DFF804130843CD
S1134300DFF8F8120860C0200600DFF80403064353
S1134310DFF8F4020660DFF8CC02006840084000D1
S1134320DFF8C0120860DFF8D40200680028FAD56C
S1134330DFF8C802006850F00040DFF8C0120860DF
S1134340DFF8A002006850F48060DFF8981208607B
S1134350EDB2022D1BDB00200600DFF8B402064399
S1134360DFF8A4020660DFF8940200680028FAD59A
S1134370DFF88802006850F00040DFF8801208601F
S1134380DFF8980200682070641C6D1EE0E70020CE
S11343900600DFF880020643DFF86C020660DFF8EF
S11343A05C020068C000FAD5DFF870020068207073
S11343B0641CDFF848020068DFF844120843DFF8A1
S11343C03C120860DFF81C02006850F00100DFF8BE
S11343D014120860DFF80C02006850F44060DFF843
S11343E0041208603800FFF722F9F1BDF8B50400A3
S11343F00D003E26FFF71EF90700DFF8E80100680C
S113440050F44060DFF8DC110860DFF8F001006868
S1134410DFF8EC110843DFF8E4110860DFF8E40189
S11344200643DFF8E4010660E4B22600DFF8D401B5
S11344300643DFF8D4010660EDB22E00DFF8CC01AC
S11344400643DFF8C4010660DFF8980100684008FD
S11344504000DFF890110860DFF8A0010068C00098
S1134460FAD5DFF898010068DFF894110843DFF803
S11344708C110860DFF86C01006840F601410843C4
S1134480DFF8601108603800FFF7D1F8F1BDF8B526
S11344900400BE26FFF7CEF807005248006850F427
S11344A040605049086055480068554908435349DD
S11344B008605748064354480660E4B2260054484E
S11344C0064351480660534806004F480660454875
S11344D00068400840004349086048480068C0003C
S11344E0FBD54648006846490843444908603D48AE
S11344F0006850F001003B49086049480068050025
S11345003848006850F44060364908603800FFF7C6
S11345108EF82800C0B2F2BD2B48006850F48060C9
S1134520294908603F48006850F480703D4908609C
S1134530704701203C490968090701D5002108009A
S1134540C0B270473748006830F4702035490860BD
S113455070473448006850F0807032490860314830
S1134560006850F400202F49086070472D48006807
S113457050F080702B49086070471348006850F46D
S11345808060114908602948006850F4A0702749E8
S113459008602748006850F4002025490860254831
S11345A0006850F4002023490860704722480068DE
S11345B050F400202049086070471D48006850F4FA
S11345C000201B4908607047388004403C80044048
S11345D028A004402CA0044040A0044044A004406F
S11345E0013C018100D00240120000380CD002408E
S11345F01200013810D0024030D002402CD00240CA
S1134600000002900000018034D002400000010844
S1134610000001900000011880D0024038D0024010
S113462084D002400CA0044050F00F404CA0044041
S113463044F00F4054F00F4048F00F4038B50400E8
S113464014F0070050F088000500E4B2082C01D1F2
S1134650832005002900C9B23C20FFF7D9FB31BDF6
S11346602DE9F04104000D0016005FF00008002061
S11346705F49087000F0C4F85E485F490860287814
S11346800700300000F027F8FFB2002F17D0666053
S11346902100300000F054F855480078401C54497B
S11346A0087014F108014046C0B200F0AAF818F1ED
S11346B001086878001910F108047F1EE4E768789F
S11346C07072A8783072307A002802D00C362D1D12
S11346D0D5E7BDE8F08100210160704770B50400A2
S11346E00D00002D01D0002C00D110E0083D002069
S11346F02860FEF79FFF06002068002802D060684B
S1134700056000E0256065603000FEF790FF70BD35
S113471070B50400002C01D1002010E0FEF78AFFE0
S1134720060020680500002D01D0286820603000B4
S1134730FEF77DFF002D01D00835FFE7280070BD8E
S113474038B504000D006C60083529002000FFF71F
S1134750C5FF31BD70B504000D00EDB2002D27D0AA
S1134760607AEDB2A8421ED323480068844206D181
S113477020686168884202D10020060003E020001E
S1134780FFF7C6FF0600002E0BD019480078401E24
S1134790174908700121300000F034F8010030009E
S11347A007E0207A0500207A002801D00C34D4E7F1
S11347B0002070BD10B504002100C9B20F48FFF7F6
S11347C0C9FF10BD70B50400002C0FD054F8045C70
S11347D007480078401C064908700021200000F0BA
S11347E011F8060021002800FFF778FF70BD0000D3
S11347F0B592FF1F8C90FF1F5492FF1F8090FF1FE4
S113480070477047020001207047000038B504006B
S1134810DFF8C00DE4B2342101FB04056868C079F7
S113482029696A6A5054686A401C6862686A6969DE
S1134830884201D300206862E86A6969884203D229
S1134840E86A401CE86208E0A86A401CA862A86AFA
S11348506969884201D30020A862E4B2012C08D11E
S1134860DFF8200E0068002803D0DFF8180E006877
S1134870804731BD10B582B00400E4B2012C40F091
S1134880FD80DFF8500D90F865000228C0F28B809F
S1134890DFF8400D806B007C000640F18480DFF877
S11348A0340D806B0079000640F1E680DFF8240DBA
S11348B090F86500DFF81C1D896B097D401A0128FA
S11348C06ADBDFF8100D406BC0F34000002863D0B2
S11348D0DFF8B40DDFF8B41D097850F83100DFF8C3
S11348E0B01D0978085CDFF8EC1C896BC871DFF82F
S11348F0A00D0078401CDFF8981D0870DFF8900DBB
S11349000078DFF8EC1DDFF8842D1278515C8842C2
S1134910CCD30020DFF8D81DDFF8702D1278505466
S1134920DFF8640DDFF8641D097810EBC1004068FE
S1134930002802D0012000F080FF0020DFF8501D85
S11349400870DFF8480D0078401CDFF8401D08703F
S1134950DFF8380D0078032803D30020DFF82C1D7E
S11349600870DFF88C0DDFF8241D0978085C002836
S11349709CD1DFF8600C806BC07810F0BF00DFF8CA
S1134980541C896BC870DFF84C0C406B30F002008B
S1134990DFF8401C486389E7DFF8380C806B007946
S11349A08DF8000068E0DFF82C0C806B00798DF83E
S11349B00000DFF8D40CDFF8D41C097850F831007B
S11349C0DFF8CC1C0978085CDFF8081C896BC87117
S11349D0DFF8BC0C0078401CDFF8B41C0870DFF86A
S11349E0B00C0078DFF8081DDFF8A02C1278515CB9
S11349F0884241D30020DFF8F81CDFF8902C1278AD
S1134A005054DFF8840CDFF8841C097810EBC100E3
S1134A104068002802D0012000F00FFF0020DFF8DA
S1134A20701C0870DFF8640C0078401CDFF85C1C14
S1134A300870DFF8580C0078032803D30020DFF84F
S1134A404C1C0870DFF8A80CDFF8401C0978085CDF
S1134A50002811D1DFF87C0B806BC07810F0BF0008
S1134A60DFF8701B896BC870DFF8680B406B30F09F
S1134A700200DFF8601B48639DF8000013BD10B509
S1134A800400DFF8500BE4B2342101FB0400006899
S1134A9030F00400DFF83C1BE4B2342202FB0411C2
S1134AA00860DFF8300BE4B2342101FB04004068F5
S1134AB0DFF8201BE4B2342202FB04114968C978F0
S1134AC011F0DF01C170E4B2012C08D1DFF8B40B9E
S1134AD00068002803D0DFF8AC0B0068804710BDE5
S1134AE002000020521A002A01D580B201E0401CC5
S1134AF0F8E7704730B40200D2B2042A01DB0D207B
S1134B00B9E0DFF8D00AD2B2342404FB0200007802
S1134B10C00701D50120AEE0DFF8B80AD2B23424D0
S1134B2004FB02004068002801D10620A3E0DFF85E
S1134B30A40AD2B2342404FB02004068DFF8944A89
S1134B40D2B2342505FB02446468E47814F0F3041B
S1134B50C470DFF8800AD2B2342404FB0200406837
S1134B6000248470DFF86C0AD2B2342404FB0200FF
S1134B704068DFF8604AD2B2342505FB0244646819
S1134B80E47814F09F04C470DFF8480AD2B23424E5
S1134B9004FB0200406800248471DFF8380AD2B2B2
S1134BA0342404FB0200406800248472DFF8240AE1
S1134BB0D2B2342404FB020040680024C472DFF83B
S1134BC0140AD2B2342404FB0200006850F001003D
S1134BD0DFF8004AD2B2342505FB02442060DFF836
S1134BE0F409D2B2342404FB0200006830F004005B
S1134BF0DFF8E049D2B2342505FB02442060DFF837
S1134C00D409D2B2342404FB0200006830F002005C
S1134C10DFF8C049D2B2342505FB02442060DFF836
S1134C20B409D2B2342404FB02000162DFF8A409FF
S1134C30D2B2342404FB0200406800790300DFF898
S1134C409409D2B2342404FB020040684079030082
S1134C50DFF88009D2B2342404FB02004068DFF894
S1134C607449D2B2342505FB02446468E47854F0F4
S1134C700C04C470002030BC70472DE9F0410400DE
S1134C800D00E4B2042C01DB0D2045E2002D01D11E
S1134C90062041E2DFF83C09E4B2342101FB0400C0
S1134CA00078C00701D4022036E2DFF82809E4B214
S1134CB0342101FB0400006A4FF47A714843C008B0
S1134CC02968884201D2082026E2DFF80809E4B204
S1134CD0342101FB04000068C0F38000002801D0E7
S1134CE0032019E2DFF8EC08E4B2342101FB0400EC
S1134CF00068C0F34000002801D004200CE22879A9
S1134D00002803D0022839D013D35CE0DFF8C408AC
S1134D10E4B2342101FB04004068DFF8B818E4B2BF
S1134D20342202FB04114968897811F0FD01817075
S1134D304BE0DFF8A008E4B2342101FB0400406832
S1134D40DFF89018E4B2342202FB04114968897830
S1134D5051F002018170DFF87C08E4B2342101FBD8
S1134D6004004068DFF86C18E4B2342202FB04113A
S1134D704968897811F0FE01817026E0DFF8540853
S1134D80E4B2342101FB04004068DFF84818E4B2BF
S1134D90342202FB04114968897851F002018170C0
S1134DA0DFF83008E4B2342101FB04004068DFF886
S1134DB02418E4B2342202FB04114968897851F0C2
S1134DC00101817001E00920A6E16879002802D080
S1134DD0012813D025E0DFF8FC07E4B2342101FBFD
S1134DE004004068DFF8EC17E4B2342202FB04113B
S1134DF04968897811F0F701817014E0DFF8D4076D
S1134E00E4B2342101FB04004068DFF8C817E4B2BF
S1134E10342202FB04114968897851F00801817039
S1134E2001E00A2078E1A879012867D1E4B2012CD5
S1134E300AD14FF44070DFF8801B08604FF44070D3
S1134E40DFF8781B08600CE0E4B2022C09D14FF4BF
S1134E504070DFF86C1B08604FF44070DFF88C1B67
S1134E600860E879012812D1DFF86807E4B2342138
S1134E7001FB04004068DFF85C17E4B2342202FB53
S1134E8004114968497B51F00401417311E0DFF8D2
S1134E904407E4B2342101FB04004068DFF834170E
S1134EA0E4B2342202FB04114968497B11F0FB018E
S1134EB04173DFF82007E4B2342101FB04004068A9
S1134EC0DFF81017E4B2342202FB04114968497B6D
S1134ED051F008014173DFF8FC06E4B2342101FB10
S1134EE004004068DFF8EC16E4B2342202FB04113B
S1134EF04968497B51F00101417311E0DFF8D406A0
S1134F00E4B2342101FB04004068DFF8C816E4B2BF
S1134F10342202FB04114968497B11F0F201417308
S1134F200120DFF8B016E4B2342202FB041181F848
S1134F3030000120DFF89C16E4B2342202FB041195
S1134F4081F83100DFF88C06E4B2342101FB04005F
S1134F504068007C10F00700401C0100481EC9B2E4
S1134F60002911D0DFF86C16E4B2342202FB0411DC
S1134F7091F830104900DFF85C26E4B2342303FBD7
S1134F80042282F83010E8E7DFF84806E4B234215E
S1134F9001FB040090F83000022804DB012120000A
S1134FA0C0B200F01CF9DFF82C06E4B2342101FB96
S1134FB004004068007CC0F30210401C0100481E3D
S1134FC0C9B2002911D0DFF80C16E4B2342202FB76
S1134FD0041191F831104900DFF8F825E4B23423C4
S1134FE003FB042282F83110E8E7DFF8E805E4B2B5
S1134FF0342101FB040090F83100022804DB042171
S11350002000C0B200F076F9286800285FD0286834
S11350100101DFF8C005E4B2342202FB0400006A97
S11350204FF47A725043FFF75BFD06000020DFF86F
S1135030A415E4B2342202FB041149680870DFF8B5
S11350409405E4B2342101FB040040680078B6B250
S1135050310A11F01F010843DFF87815E4B2342255
S113506002FB041149680870DFF86805E4B23421D2
S113507001FB04004068467028680101DFF854050C
S1135080E4B2342202FB0400006ADFF8802A5043B1
S1135090FFF726FDB6B2642101FB16000700642168
S11350A07801FFF71DFD8046DFF82805E4B23421BE
S11350B001FB04004068DFF81C15E4B2342202FB53
S11350C004114968897A18F01F0211438172DFF8CC
S11350D00405E4B2342101FB04004068DFF8F41451
S11350E0E4B2342202FB04114968897951F00F01BA
S11350F08171DFF8E004E4B2342101FB040040686C
S1135100DFF8D014E4B2342202FB04114968C978F0
S113511051F00C01C1700020BDE8F0810200D2B250
S1135120042A01DB0D2059E0002901D1062055E0B5
S1135130DFF8A004D2B2342303FB02000078C007D6
S113514001D402204AE0DFF88C04D2B2342303FBFA
S1135150020040688078800702D4002008710EE0C5
S1135160DFF87004D2B2342303FB02004068807875
S1135170C00702D50120087101E002200871DFF8A0
S11351805404D2B2342303FB020040688078000741
S113519002D50120487101E000204871DFF8340491
S11351A0D2B2342303FB02004068407B0923184237
S11351B011D001208871DFF81C04D2B2342303FB20
S11351C002004068407B400702D50120C87104E01A
S11351D00020C87101E0002088710020704730B5BC
S11351E083B004000D0000A92000C0B2FFF796FFB1
S11351F0E4B2042C01DB0D207BE0DFF8D803E4B239
S1135200342101FB040090F83000EDB2A84201D231
S11352100C206EE0DFF8BC03E4B2342101FB04008F
S11352200078C00701D4022063E0DFF8A803E4B2E9
S1135230342101FB04000068C0F38000002801D081
S1135240032056E0E348E4B2342101FB0400406843
S1135250E049E4B2342202FB04114968C97811F030
S1135260F301C170DB48E4B2342101FB040040685F
S1135270D849E4B2342202FB04114968097C51F094
S113528008010174D348E4B2342101FB04004068EE
S11352904575D048E4B2342101FB04004068CD498F
S11352A0E4B2342202FB04114968497C51F0C00184
S11352B04174C848E4B2342101FB04004068C54984
S11352C0E4B2342202FB04114968C97851F00C019C
S11352D0C170EDB2BF48E4B2342101FB04000068A0
S11352E065F30F20BB49E4B2342202FB04110860C9
S11352F000203EBD30B583B004000D0000A920009D
S1135300C0B2FFF70BFFE4B2042C01DB0D2078E000
S1135310B048E4B2342101FB040090F83100EDB24E
S1135320A84201D20C206CE0AA48E4B2342101FB6B
S113533004000078C00701D4022062E0A548E4B26A
S1135340342101FB04000068C0F34000002801D0B0
S1135350042056E09F48E4B2342101FB0400406875
S11353609C49E4B2342202FB04114968C97811F063
S1135370F301C1709748E4B2342101FB0400406892
S11353809449E4B2342202FB04114968097C51F0C7
S1135390800101748F48E4B2342101FB04004068A9
S11353A0C5748C48E4B2342101FB04004068894987
S11353B0E4B2342202FB04114968497C51F0C00173
S11353C041748448E4B2342101FB040040688149FB
S11353D0E4B2342202FB04114968C97851F00C018B
S11353E0C170EDB27B48E4B2342101FB04000068D3
S11353F065F317407749E4B2342202FB04110860D4
S113540000203EBD70B40300DBB2042B01DB0D2091
S1135410DEE0002901D10620DAE092B2002A01D1AF
S11354200720D5E0DFF8D807DBB2342505FB0300FD
S11354300078C00701D40220CAE0DFF8C407DBB259
S1135440342505FB03000068C0F38000002801D068
S11354500320BDE00020DFF8A857DBB2342606FBAA
S1135460035528720020DFF89857DBB2342606FB78
S113547003556881DFF88807DBB2342505FB030098
S1135480C06840084000DFF87857DBB2342606FBDA
S11354900355E860DFF86807DBB2342505FB030039
S11354A0C06830F00200DFF85857DBB2342606FB40
S11354B00355E860DFF84807DBB2342505FB030039
S11354C0C06830F00400DFF83857DBB2342606FB3E
S11354D00355E860DFF82807DBB2342505FB030039
S11354E0C06830F00800DFF81857DBB2342606FB3A
S11354F00355E860DFF80807DBB2342505FB030039
S1135500016192B2DFF8F806DBB2342505FB030033
S11355104261DFF8EC06DBB2342505FB03000068CA
S113552050F00400DFF8D856DBB2342606FB0355EE
S11355302860DFF8CC06DBB2342505FB03004068A5
S113554000790400DFF8B806DBB2342505FB03005C
S11355504068C0790400DFF8A806DBB2342505FBF7
S113556003004068DFF89856DBB2342606FB035587
S11355706D686D7C55F0400545740020DFF8805659
S1135580DBB2342606FB035568620020DFF8705650
S1135590DBB2342606FB0355A8620020DFF8605610
S11355A0DBB2342606FB0355E862DFF85406DBB2AF
S11355B0342505FB03004068DFF84456DBB234268B
S11355C006FB03556D68ED7855F02005C570002085
S11355D070BC7047648EFF1F10B50400E4B2042C45
S11355E001DB0D2024E0DFF81806E4B2342101FBCE
S11355F004000078C00701D4022019E0DFF8000697
S1135600E4B2342101FB04000068C0F380000028E8
S113561001D100200CE00120DFF8E415E4B23422CB
S113562002FB041108722000C0B2FFF728FA002020
S113563010BD0100C9B2042901DB0D2021E0DFF80F
S1135640C005C9B2342202FB01000078C00701D4AE
S1135650022016E0DFF8A805C9B2342202FB0100DB
S11356600068C0F34000002801D1002009E0DFF801
S11356709005C9B2342202FB010040680022C274C2
S1135680002070478092FF1FC091FF1FC292FF1F2E
S1135690C092FF1F0100C9B2042901DB0D2025E0DF
S11356A0DFF85C05C9B2342202FB01000078C007B0
S11356B001D402201AE0DFF84805C9B2342202FB03
S11356C001000068C0F38000002801D003200DE031
S11356D0DFF82C05C9B2342202FB01000068C0F3D4
S11356E04000002801D0042000E0002070470000A2
S11356F07C92FF1F30B40200DFF80405D2B23423D9
S113570003FB0203D86A002801D100206AE0DFF815
S1135710F004D2B2342404FB02004068DFF8E04411
S1135720D2B2342505FB02446468E47814F0DF0443
S1135730C470DFF8CC04D2B2342404FB0200006944
S1135740DFF8BC44D2B2342505FB0244A46A205CD1
S11357500870DFF8AC04D2B2342404FB0200806A7F
S1135760401CDFF89C44D2B2342505FB0244A062FD
S1135770DFF88C04D2B2342404FB0200806ADFF820
S11357808044D2B2342505FB02446469A04207D3A5
S11357900020DFF86C44D2B2342505FB0244A06239
S11357A0DFF85C04D2B2342404FB0200C06A401E59
S11357B0DFF84C44D2B2342505FB0244E062DFF842
S11357C04004D2B2342404FB02004068DFF83044C1
S11357D0D2B2342505FB02446468E47854F0200412
S11357E0C470012030BC704730B4D2B2002A11D04A
S11357F0DFF80C34C0B2342404FB00335B68DFF8F8
S11358000044C0B2342505FB00446468E4780C43CA
S1135810DC7010E0DFF8E833C0B2342404FB00335A
S11358205B68DFF8DC43C0B2342505FB00446468E0
S1135830E4788C43DC7030BC704738B50400E4B2C3
S1135840012C27D100200500EDB2032D22D2DFF870
S1135850B403EDB2285C00281AD1DFF8AC03EDB232
S113586010EBC5004068002812D0DFF89C03EDB2AD
S113587050F83500DFF89013EDB211EBC50149681B
S113588088470020DFF88013EDB211EBC5014860B2
S11358906D1CD9E731BD30B583B0DFF870034068C3
S11358A0DFF85C138863DFF85803806B002856D058
S11358B0DFF85C03006850F40060DFF854130860FC
S11358C0DFF85003006850F40050DFF84813086014
S11358D04FF44070DFF8401308604FF44070DFF875
S11358E03C1308604BF680310120FFF703F90400F4
S11358F000208DF8040000208DF805005FF4E130ED
S1135900009000208DF8060000208DF8070000A903
S11359100120FFF7B2F92043040000200500EDB296
S1135920032D08DA0020DFF8E012EDB211EBC50117
S113593048606D1CF3E72120FDF7E6FD09212120D5
S1135940FDF763FE2220FDF7DFFD08212220FDF78D
S11359505CFEFA22DFF8C8120120FFF753FD37BDC1
S113596010B50400DFF8BC020078002809D000203C
S1135970DFF8B0120870DFF8B00200782070012060
S113598003E021000120FFF7B5FE10BDDFF874022B
S1135990DFF898120978085C00280AD1DFF8600261
S11359A0806B0079C0F3801010F0010090F00100CA
S11359B000E00120C0B270470CD0044008D004407D
S11359C04CD0044010B50400DFF864020460DFF832
S11359D060020068002801D0012200E00022D2B257
S11359E004210120FFF700FF10BD000048D004404F
S11359F0F0B583B0040000250120FFF74BFE07003B
S1135A00FFB2022F1AD000200600022E16D2FFB2D7
S1135A10032F05D10120FFF7DFFD0120050007E07A
S1135A20FFB2042F03D10120FFF703FE00E005E0DD
S1135A300120FFF72FFE0700761CE6E700A90120EE
S1135A40FFF76CFB009400A90120FFF716F9EDB2F3
S1135A50012D04D1FA2272490120FFF7D3FCF7BDCE
S1135A6070B504000D001600EDB2002D06D1300013
S1135A70002801D02000B047012045E061486D496D
S1135A800978085C002801D000203DE05D486949A0
S1135A9009780D545C486749097810EBC1004068E7
S1135AA000280BD058486349097850F8310056490A
S1135AB0604A127811EBC2014968884752485D492F
S1135AC0097840F8314050485A49097810EBC10030
S1135AD0466058480078401C56490870554800787C
S1135AE0032802D30020534908704548406B50F006
S1135AF00200434948634248806BC07850F040003C
S1135B003F49896BC870012070BD0000A086010068
S1135B1080B53B48806B00793949C8643848806B4C
S1135B20407937490865364890F8500040060CD54E
S1135B303348806B0078400607D53148806B407944
S1135B4050F040002E49896B48712D48806BC07815
S1135B5040070CD52A4890F84C00800607D5284801
S1135B60806BC078800602D50120FEF74FFE2448E2
S1135B70806BC07800070CD5214890F84C000006D3
S1135B8007D51F48806BC078400602D50120FEF778
S1135B9071FE01BD1A4A926B127910000F22104255
S1135BA003D0174A926BD2791100154A926B927CFA
S1135BB0920707D5124A926B927C52F00202104B64
S1135BC09B6B9A740E4A926B927CD20707D50C4A4F
S1135BD0926B927C52F00102094B9B6B9A74084AB7
S1135BE0926B527C52F04002054B9B6B5A74044AF0
S1135BF0926B527C52F08002014B9B6B5A7470473B
S1135C00648EFF1F7C92FF1FC091FF1F386B000042
S1135C10348004403880044004D0044000D0044060
S1135C20688DFF1FBE92FF1FBF92FF1FC292FF1F0E
S1135C308092FF1FC192FF1F80B52248006850F474
S1135C400060204908602048204908601E48204917
S1135C5008601D481F4908601B481F4908603D2013
S1135C60FDF752FC01BD19480068C00105D51B4869
S1135C70006850F080001949086015480068C001A8
S1135C8005D51648006850F04000144908601148D2
S1135C900068C00105D51148006850F020000F4984
S1135CA008600D480068C00105D50C48006850F034
S1135CB010000A4908600A48006850F0F0000849DA
S1135CC0086070473880044003010A0010B00440A3
S1135CD014B0044018B004401CB00440CCF00F4091
S1135CE0A0B00440DFF800F00180FF1F80B540F24F
S1135CF0FF300078C0B2FF2813D040F2FF300078A4
S1135D00DFF82C110870DFF82C01007810F0E000A7
S1135D1040F2FE31097811F01F010843DFF8141135
S1135D2008702920DFF8101108709820DFF80C1192
S1135D300870DFF80C010078C006FAD4DFF800011F
S1135D400078C0F38100C0B20228F7D14120DFF807
S1135D50F41008700020DFF8F0100870012300220E
S1135D6000210020FFF7BEFFDFF8E0000078C00745
S1135D7006D5DFF8D800007850F0010033490870E8
S1135D804020314908702E4800788006FBD52C4805
S1135D9000784006FBD52948007810F03F002749D9
S1135DA0087027480078C0F38100C0B20328F8D1F6
S1135DB0A020274908702448007850F02000224988
S1135DC00870302002BD1D49097811F03F011B4ABB
S1135DD011701A49097851F08001184A1170184954
S1135DE00978C1F38101C9B20229F8D116490978A9
S1135DF011F0BF01144A117011490978C9B289061A
S1135E00FAD40E490978080010F03F0050F004005D
S1135E100A4908700A490978C9B2C906FAD5084975
S1135E200978C1F38101C9B20029F8D17047000093
S1135E300240064003400640014006400040064040
S1135E40064006400440064005400640084006401F
S1135E50005006402DE9FC4104000D00160000F03E
S1135E606FF9002801D0012064E02078411EC9B2F6
S1135E702000FEF7AFF80320FEF739F98DF8000093
S1135E800420FEF734F98DF801000720FEF72FF9FE
S1135E908DF805009DF800709DF80180002000F049
S1135EA03DFB002000F03EFB9DF8000010F0F800E0
S1135EB08DF800009DF8000050F002008DF80000FD
S1135EC09DF8010010F0FE008DF801000020FEF79F
S1135ED00EF98DF804000120FEF709F98DF803008E
S1135EE00220FEF704F98DF802009DF8020050F03C
S1135EF040008DF802009DF804100020FDF788FF93
S1135F009DF803100120FDF783FF9DF80210022085
S1135F10FDF77EFF9DF801100420FDF779FF9DF841
S1135F2005100720FDF774FF9DF800100320FDF70E
S1135F306FFF0020BDE8F68130B583B004000D008A
S1135F4000F0FEF8002801D0012050E0280000F005
S1135F50E5FA200000F0E6FA0320FEF7C8F88DF811
S1135F6000000420FEF7C3F88DF802009DF800003D
S1135F7010F0F8008DF800009DF8000050F00100CA
S1135F808DF800009DF8020010F0FE008DF802006C
S1135F900020FEF7ACF88DF804000120FEF7A7F806
