S0190000436F6E6E656374697669747920546573742E737265634C
S1130000F87F0020E9580000DD580000E5580000A2
S1130010E1580000E1580000E1580000E1580000F8
S1130020E1580000E1580000E1580000E1580000E8
S1130030E1580000E1580000E1580000E1580000D8
S1130040E1580000E1580000E1580000E1580000C8
S1130050E1580000E1580000E1580000E1580000B8
S1130060E1580000E1580000E1580000E1580000A8
S1130070E1580000E1580000E1580000E158000098
S1130080E1580000E1580000E1580000E158000088
S1130090E1580000E1580000E1580000E158000078
S11300A0E1580000E1580000E1580000E158000068
S11300B0E1580000E1580000E1580000E158000058
S11300C0E1580000A94A00002D4B0000E15800004F
S11300D0E1580000E1580000E1580000E158000038
S11300E0E1580000E15800004D340000E1580000E0
S11300F0E1580000E1580000E1580000E158000018
S1130100C1080000C1080000C1080000C1080000C7
S1130110E1580000E1580000E1580000E1580000F7
S1130120E1580000E1580000E1580000E1580000E7
S113013051540000F74B0000E1580000E158000062
S1070140E15800007E
S10B014480BB0000FF0B00006A
S11304102DE9F04F87B0782741F68F10DFF8141CD0
S113042008800020DFF8101C08600020DFF80C1C96
S113043008600020DFF8081C08600020DFF8041CB6
S113044008600020DFF8001C086001F09FF801F04C
S113045070F900F065F901F0F1FA41F26F7000F003
S11304600BFADFF8E80B006850F01000DFF8DC1B33
S11304700860DFF8D80B006850F00800DFF8CC1BE8
S113048008600120DFF8C81B08700B20DFF8CC1DC2
S113049081F843005FF00008DFF8C00D90F84300D6
S11304A001F00AFD81461F2001F03AFD8246DFF883
S11304B0A40B007801F060FD83460020DFF8981B50
S11304C0088000F09DFA0021DFF8902B1170DFF80E
S11304D0901B096851F01001DFF8842B1160DFF8DC
S11304E0801B096851F00801DFF8742B11600021AA
S11304F0DFF8542B1160DFF8681B096851F0020122
S1130500DFF85C2B1160DFF8581B096851F02001FB
S1130510DFF84C2B11600020DFF81C1B0860002062
S1130520DFF8181B08600020DFF8141B08600020A7
S1130530DFF8281D48810020DFF8201D48830020B3
S1130540DFF8181D48854FF47A60DFF8101D088124
S11305504FF47A60DFF8041D08834FF47A60DFF803
S1130560FC1C0885DFF8FC0AC08A4FF47A7110FB82
S113057001F900F00EF9DFF8E40C4089DFF8DC1C27
S11305800989401A0400DFF8D40C408BDFF8CC1C36
S1130590098B401A0500DFF8C40C408DDFF8BC1C41
S11305A0098D401A0600A74209DBFC4207DBAF4273
S11305B005DBFD4203DBB74201DBFE4243DADFF831
S11305C0980A0088401CDFF8901A088000208046B2
S11305D000F0E0FE82465FFA8AFABAF1000F01D118
S11305E000F080FAB8F101081FFA88F8B8F1000F9A
S11305F0F8D10020DFF8701A0870DFF8600A90F96B
S1130600000002281FD1DFF8580C007800281AD007
S1130610DFF8600D00688078062814DBDFF8540DDD
S11306200068807818280BD100A800F02EFC00A8E0
S113063000F097FC00A800F009F8002803D16AE74D
S113064000A800F088FF00F0CBFE64E70100087802
S1130650002807D00878412802DA0878052801DA4A
S113066000203BE04888B0F5616F02DC4888002830
S113067001D1002032E08888B0F5FA5F01D0002073
S11306802CE08879022801DB002027E0C8790228C1
S113069001DB002022E0087A642801D000201DE05C
S11306A0C86848F2E802904201D0002016E00869C8
S11306B0DFF8D42C904201D000200FE0087D0128FF
S11306C001D000200AE0C88A40F6B932904202DA2A
S11306D0C88A032801DA002000E00120704780B5B1
S11306E0DFF8800BDFF87C19182201F047FEDFF8F1
S11306F0740B00F036FCDFF8940C8088DFF88C1C57
S1130700898889B2090A51EA0020DFF8801C8880B0
S113071000F0B2FDDFF8B40C006801F08FFA02BDFE
S1130720DFF8440B006850F48050DFF83C1B08608D
S1130730DFF8380B006830F4E060DFF8301B086045
S1130740DFF8280B006850F48070DFF8201B086085
S1130750DFF81C0B006830F4E060DFF8141B08605D
S1130760DFF80C0B006850F48070DFF8041B08609D
S1130770DFF8000B006850F02200DFF8F81A086078
S1130780DFF84C0C006850F02200DFF8441C0860CD
S1130790704738B5002400250120DFF8A818086048
S11307A041F26F7000F068F8302001F023FE012060
S11307B0DFF8901808600020DFF88C180860DFF874
S11307C088080068B0F5FA5FF9DB0020DFF87418D8
S11307D00860DFF86408006810F57A604FF4FA5195
S11307E0B0FBF1F0DFF8741A8881DFF85008006874
S11307F010F57A604FF4FA51B0FBF1F0DFF85C1AAF
S11308008883DFF83C08006810F57A604FF4FA51E9
S1130810B0FBF1F0DFF8441A8885302001F038FE8F
S113082001F0C5F901F09FF90028FBD001F0C6F9E9
S1130830040040F2751049F2A83101FB04F1DFF81D
S1130840382BB1FBF2F1401ADFF8101A088701F0D7
S113085092F901F088F90028FBD001F0AFF9050006
S113086041F2680000FB05F040F2FF31B0FBF1F00B
S1130870DFF8E819488731BD10B50400302001F0D5
S113088007FEDFF8F80A006850F40000DFF8EC1AFD
S113089008600120DFF8E81A0860DFF8E80A04605D
S11308A00320DFF8EC1A08600120DFF8DC1C086084
S11308B00021302001F01FFE302001F09BFD10BD0F
S11308C070B5002400250026DFF87C070068B0F529
S11308D0FA5F6BDCDFF86C070068012866D101F071
S11308E051F901F040F90028FBD001F067F9040048
S11308F0DFF868094089A04202DADFF86009448120
S1130900DFF858090089844202DADFF850090481CB
S1130910DFF8240700682018DFF81C17086001F0CE
S113092038F901F020F90028FBD001F047F905005F
S1130930DFF82809408BA84202DADFF82009458352
S1130940DFF81809008B854202DADFF81009058305
S1130950DFF8E80600682818DFF8E016086001F000
S11309601FF901F000F90028FBD001F027F9060077
S1130970DFF8E808408DB04202DADFF8E008468587
S1130980DFF8D808008D864202DADFF8D008068541
S1130990DFF8AC0600683018DFF8A4160860DFF84A
S11309A0A8060068401CDFF8A01608600120DFF8E4
S11309B0D81B086070BDDFF81C1ADFF81C0A8142DE
S11309C009D3491EDFF8000D00780A785040DFF89B
S11309D0F82C1070F1E7DFF8F00C0078C0B2DFF803
S11309E0E82C127812F00F0292EA1010C0B270478D
S11309F080B500A801F0C7F99DF9000040B202BD1E
S1130A002DE9F047002400250520DFF8C019096806
S1130A10087000F0DAFA00F0E6FADFF84806C06879
S1130A20DFF8A41908607FF07F008046FFF7C3FF5A
S1130A30050000200600F6B2402E3CDA0120814673
S1130A40681C10F00F0515F10B0007005FFA89F917
S1130A50B9F1000F05D03800C0B201F02DFA81467B
S1130A60F4E701208146DFF86409006801F0E6F844
S1130A7081465FFA89F9B9F1000F1AD100F032F812
S1130A80DFF8240D007800280DD0FFF7B1FF4FFAEE
S1130A9088F840B2804506DA8046DFF8C01781F84E
S1130AA0437077210C00DFF8CC08006840780328F5
S1130AB0E4D1761CBFE7DFF8AC050069DFF808195C
S1130AC00860DFF8980790F8430001F0F5F98246D2
S1130AD0DFF8880780F83C80FFF701FE2000C0B2F1
S1130AE0BDE8F08710B50120DFF8701508707B2091
S1130AF0DFF8801809680870DFF8CC080168DFF8AF
S1130B007408006801F0DCF80400E4B2002C09D099
S1130B10DFF8B4080168DFF85C08006801F0D0F879
S1130B200400F2E7DFF8340590F900000128F9D059
S1130B30DFF840080068407802283BD1DFF8340829
S1130B400068407941282DD1DFF8280800688079B1
S1130B50432827D1DFF81C080068C0794B2821D12D
S1130B60DFF810080068807805281BDB0120DFF817
S1130B70F0160870DFF8FC070068008980B2010AEB
S1130B8051EA0020DFF8AC14098880B2884204D10D
S1130B900120DFF8141C08700CE00020DFF8081CAA
S1130BA0087007E00020DFF8B81608700020DFF8AE
S1130BB0F81B087010BDDFF824088088DFF81C18C3
S1130BC0898889B2090A51EA0020DFF81018888060
S1130BD0DFF80808C088DFF80418C98889B2090A50
S1130BE051EA0020DFF8F417C880DFF8F007008925
S1130BF0DFF8E817098989B2090A51EA0020DFF809
S1130C00DC170881DFF8D4074089DFF8D017498959
S1130C1089B2090A51EA0020DFF8C0174881DFF8D9
S1130C20BC078089DFF8B417898989B2090A51EAB7
S1130C300020DFF8A8178881DFF8A007008BDFF811
S1130C409C17098B89B2090A51EA0020DFF88C1736
S1130C500883DFF88807408BDFF88017498B89B257
S1130C60090A51EA0020DFF874174883DFF86C079B
S1130C70808BDFF86817898B89B2090A51EA002052
S1130C80DFF858178883DFF85407008DDFF84C1716
S1130C90098D89B2090A51EA0020DFF84017088556
S1130CA0DFF83807408DDFF83417498D89B2090A17
S1130CB051EA0020DFF824174885DFF82007808DEB
S1130CC0DFF81817898D89B2090A51EA0020DFF884
S1130CD00C178885DFF80407408FDFF80017498F69
S1130CE089B2090A51EA0020DFF8F0164887DFF8D4
S1130CF0EC06C08FDFF8E416C98F89B2090A51EAFD
S1130D000020DFF8D816C887DFF8D006B0F8400016
S1130D10DFF8C816B1F8401089B2090A51EA002078
S1130D20DFF8B816A1F84000DFF8B006008FDFF84E
S1130D30AC16B1F93810C1F3072151EA0020DFF8ED
S1130D409C160887DFF894060069000230F0FF1053
S1130D50DFF888160969090A11F0FF110843DFF862
S1130D607C160861DFF874060069DFF870160969FB
S1130D705FEA3140DFF864160861DFF86006406915
S1130D80000230F0FF10DFF854164969090A11F027
S1130D90FF110843DFF844164861DFF84006406954
S1130DA0DFF8381649695FEA3140DFF830164861E8
S1130DB0DFF82806006A000230F0FF10DFF81C1686
S1130DC0096A090A11F0FF110843DFF810160862D6
S1130DD0DFF80806006ADFF80416096A5FEA3140A2
S1130DE0DFF8F8150862DFF8F405406A000230F015
S1130DF0FF10DFF8E815496A090A11F0FF110843EA
S1130E00DFF8D8154862DFF8D405406ADFF8CC155E
S1130E10496A5FEA3140DFF8C4154862DFF8BC056F
S1130E20006B000230F0FF10DFF8B015096B090AFF
S1130E3011F0FF110843DFF8A4150863DFF89C05DF
S1130E40006BDFF89815096B5FEA3140DFF88C1509
S1130E500863DFF88805406B000230F0FF10DFF80C
S1130E607C15496B090A11F0FF110843DFF86C1572
S1130E704863DFF86805406BDFF86015496B5FEA8B
S1130E803140DFF858154863704738B5040005252C
S1130E900122DFF8E00400682818411D200001F059
S1130EA097FB6D1C0222DFF8CC0400682818411D52
S1130EB0A01C01F08DFBAD1C0222DFF8B804006811
S1130EC02818411D201D01F083FBAD1C0122DFF811
S1130ED0A40400682818411DA01D01F079FB6D1CB5
S1130EE00122DFF8900400682818411DE01D01F07C
S1130EF06FFB6D1C0122DFF87C0400682818411D7B
S1130F0014F1080001F064FB6D1C0422DFF8640492
S1130F1000682818411D14F10C0001F059FB2D1D27
S1130F200422DFF8500400682818411D14F1100051
S1130F3001F04EFB2D1D0122DFF83804006828184B
S1130F40411D14F1140001F043FB6D1C0222DFF873
S1130F50240400682818411D14F1160001F038FB20
S1130F6031BD4188428892B2120A52EA012141807D
S1130F708188828892B2120A52EA01218180C18A50
S1130F80C28A92B2120A52EA0121C182C1680902DC
S1130F9031F0FF11C268120A12F0FF121143C1604E
S1130FA0C168C2685FEA3241C1600169090231F077
S1130FB0FF110269120A12F0FF1211430161016963
S1130FC002695FEA324101617047DFF8F8088088FE
S1130FD0DFF8F018898889B2090A51EA0020DFF89D
S1130FE0E4188880704780B50122DFF8D818DFF84C
S1130FF0DC030068C01C01F0EBFA0122DFF8C8181A
S1131000DFF8C8030068001D01F0E2FA0122DFF8EE
S1131010BC18DFF8B8030068401D01F0D9FA0222B9
S1131020DFF8AC18DFF8A4030068801D01F0D0FAE3
S113103001BD00009091FF1F4891FF1F4C91FF1FBD
S11310405091FF1F4491FF1F4091FF1FC8F00F40B4
S1131050AC91FF1FA691FF1F9291FF1F9A91FF1F52
S1131060C4F00F40E490FF1FA991FF1F80B5012237
S11310707A49DFF858030068C01C01F0A9FA01227C
S1131080DFF85018DFF844030068001D01F0A0FAEF
S11310900122DFF84418DFF834030068401D01F032
S11310A097FA0122DFF83418DFF820030068801D66
S11310B001F08EFA0222DFF82818DFF81003006826
S11310C0C01D01F085FA0222DFF81818DFF8FC02CF
S11310D00068093001F07CFA0222DFF80C18DFF80E
S11310E0EC0200680B3001F073FA0222DFF8FC17FF
S11310F0DFF8D80200680D3001F06AFA0222DFF846
S1131100F017DFF8C80200680F3001F061FA04221A
S1131110DFF8E017DFF8B4020068113001F058FA84
S11311200422DFF8D417A9480068153001F050FAFA
S11311300222DFF8C817A5480068193001F048FA00
S11311400222DFF8BC17A14800681B3001F040FA06
S11311500222DFF8B0179D4800681D3001F038FA0C
S11311600422DFF8A417994800681F3001F030FA10
S11311700422DFF8981795480068233001F028FA14
S11311800222DFF88C1791480068273001F020FA1A
S11311900222DFF880178D480068293001F018FA20
S11311A00222DFF87417894800682B3001F010FA26
S11311B00422DFF86817854800682D3001F008FA2A
S11311C00422DFF85C1781480068313001F000FA2E
S11311D00222DFF850177D480068353001F0F8F935
S11311E00222DFF8441779480068373001F0F0F93B
S11311F00122DFF8381775480068393001F0E8F942
S11312000222DFF82C17714800683A3001F0E0F947
S11312100222DFF820176D4800683C3001F0D8F94D
S11312200122DFF81417694800683E3001F0D0F954
S11312300122DFF80817654800683F3001F0C8F95B
S11312400122DFF8FC1661480068403001F0C0F963
S11312503E205E490968087001BD00003490FF1FFC
S11312609B91FF1FCC90FF1F3880044004C00440B2
S113127014C00440D4F00F4080B5012243495348C0
S11312800068C01C01F0A4F90122DFF8B8164F4829
S11312900068001D01F09CF90122DFF8AC164B48F0
S11312A00068401D01F094F90122DFF8A0164748B8
S11312B00068801D01F08CF90222DFF8941643487F
S11312C00068C01D01F084F90122DFF888163F4848
S11312D00068093001F07CF90222DFF87C163B48F3
S11312E000680A3001F074F90222DFF870163748FA
S11312F000680C3001F06CF90122DFF86416334801
S113130000680E3001F064F90122DFF858162F4806
S113131000680F3001F05CF90122DFF84C162B480D
S11313200068103001F054F90422DFF84016274811
S11313300068113001F04CF90422DFF83416234818
S11313400068153001F044F90122DFF828161F481F
S11313500068193001F03CF90222DFF81C161B4822
S113136000681A3001F034F9192018490968087026
S113137001BD00003491FF1FAD4B01003C800440CF
S1131380007003400071034088840200C490FF1F72
S11313900871034080B5DFF8E40500880F49C88070
S11313A0FFF726FB0D4981F83C00FFF704FCFFF72B
S11313B05DFE0648006800F041FC0121DFF8C0250D
S11313C01170C0B202BD00003891FF1F3091FF1FA1
S11313D0C0F00F400092FF1FF180FF1F3490FF1FE9
S11313E05320DFF8A01508704E20DFF898154870D8
S11313F04420DFF8901588703E20DFF88815C87007
S1131400DFF884050088DFF87C158880DFF87C0528
S1131410DFF870150861DFF87805DFF868150862F1
S1131420DFF87005DFF85C150863DFF86C05DFF89A
S113143054154861DFF86405DFF848154862DFF8A1
S11314406005DFF8401548634FF47A70DFF834150F
S113145008814FF4FA60DFF82C15088340F6B830A1
S1131460DFF82015088542F20770DFF81815488167
S113147042F20870DFF80C15488342F20970DFF875
S1131480041548856F20DFF8FC148881DE20DFF81E
S1131490F414888340F24D10DFF8E814888540F294
S11314A09A20DFF8E014C88040F27710DFF8D414F3
S11314B0088740F6B830DFF8CC1448870320DFF8FB
S11314C0C414C8870320DFF8BC14A1F8400002202C
S11314D0DFF8B01481F842000020DFF8A81481F886
S11314E043000920DFF89C1481F844000020DFF851
S11314F0B4140870704770B588B000A8DFF8A81459
S1131500202200F03BFFDFF8A4040068DFF8A014F9
S113151008604FF40062DFF89C04016800A801F041
S11315201CF90400DFF88C040668DFF88434042214
S1131530DFF88004016800A801F06AF90500361D8F
S1131540002D06D1DFF870341822310000A801F014
S113155016FA08B070BD002101704FF4B4714180D7
S11315604FF4FA518180012181710121C1716421FB
S1131570017248F2E801C160DFF840140161002102
S113158001750321C18270470C7103402DE9F041BC
S113159088B072B64F20DFF8281408705020DFF8A6
S11315A0201448705420DFF818148870DFF8D8032A
S11315B00088DFF80C1488801920DFF80414C87040
S11315C05020DFF8001308704E20DFF8F81248703E
S11315D04720BC498870DFF8B0030088B949888087
S11315E00124002500A8DFF8DC13202200F0C6FE49
S11315F000A801F09FF80422DFF8B413DFF8B40365
S1131600006801F009FADFF8C0030068DFF89C13F2
S11316100968884207D0DFF898030068DFF88C1364
S11316200968884201D0012600E00026DFF87C0327
S11316300068DFF894130860F6B2002E04D0DFF8D7
S11316407803FFF788FF08E01822DFF86C13DFF84F
S113165064030068001D01F0DFF9FFF7C1FE01F02B
S1131660E5F900F0A1FB804601F08CFEDFF85C2375
S1131670DFF85C13DFF85C0302F04AF802F0B2F81A
S113168003F041F95FF4E13003F0D4F90FF2E10023
S113169003F0BAF903F098FA00F018F862B60A27D2
S11316A03800471E002805D00020401E80B20028C4
S11316B0FBD1F5E7FFF71FFF0020DFF80C130860EC
S11316C008B0BDE8F0810000B491FF1F0020DFF8EE
S11316D0081308700F20DFF8041308701720C0499E
S11316E008707320BF4908701420BF490870002097
S11316F0BE4908700020BE4908700020BD4908702A
S11317000020BD4908700020BC4908700020BC4975
S113171008700020BB4908700020BB4908700020F5
S1131720BA4908700020BA4908700020B949087005
S1131730704738B5B8480D490860B848B8490860DA
S11317407B20B74909680870002000F029FCA348F1
S1131750007800F0B1FB0400A148007800F0E0FB41
S11317600500A048007800F007FC31BD3091FF1F50
S113177080B5AC4803F02CF99D480078002804D0CB
S1131780A848007800F018F802E0012085490870A4
S113179001BD0121A44A117070470121A34A1170AF
S11317A00221774A117070479C91FF1FA04908706D
S11317B00121A04A1170704701219F4A1170002134
S11317C0784A1170C0B20100612934D06D2965D006
S11317D06E2956D0712914D072290ED0732937D0AE
S11317E0742906D0772919D0782944D07A293CD095
S11317F061E00021784A117063E00121764A11709A
S11318005FE076490978491C744A11707349097874
S11318101B2902DB0B21714A117052E06F490978D0
S1131820491E6E4A11706D4909780B2902DA1A2192
S11318306A4A117045E06A490978491C684A11707E
S113184067490978202902DB0321654A117038E0D1
S113185063490978491E624A11706149097803296C
S113186002DA1F215E4A11702BE05E490978491C97
S11318705C4A117025E05B490978491E594A117088
S11318801FE059490978491C574A1170564909788B
S11318907C2902DB0121544A117012E05249097873
S11318A0491E514A117050490978002902D17B21FF
S11318B04D4A117005E001213A4A117000215E4A37
S11318C0117070472091FF1F2191FF1F2291FF1F6C
S11318D02491FF1F3590FF1F3690FF1F3790FF1F85
S11318E03890FF1F3A90FF1F3C90FF1F3E90FF1F50
S11318F04090FF1F4490FF1F4890FF1F4C90FF1F14
S11319004E90FF1F5090FF1F5490FF1F5890FF1FD1
S11319105C90FF1F5E90FF1F6090FF1F6490FF1F8D
S11319206890FF1F6C90FF1F6E90FF1F7090FF1F49
S11319307290FF1F7490FF1F7690FF1F7790FF1F18
S11319407890FF1FC590FF1FC690FF1FC790FF1F11
S1131950C890FF1FCC90FF1FCE90FF1FD090FF1F99
S1131960D290FF1FD390FF1FD490FF1FD890FF1F6A
S1131970DC90FF1FE090FF1FE290FF1F9291FF1F7A
S11319809A91FF1F3490FF1F9091FF1F47F410009E
S11319908EE82100D5DC3200C76B9F068ED73E0D42
S11319A05543DE13A991FF1F30580000F45800007E
S11319B03C91FF1FF8580000E490FF1F8884020048
S11319C0C490FF1F305800005491FF1F7C90FF1FEC
S11319D0D05800005080FF1FA291FF1FA491FF1F49
S11319E0A591FF1FA691FF1FA791FF1FA891FF1F9D
S11319F0AB91FF1FAC91FF1FAD91FF1FAE91FF1F75
S1131A00AF91FF1FB091FF1FB191FF1FA391FF1F63
S1131A10B291FF1FB391FF1FB48FFF1F308FFF1FC1
S1131A203491FF1FA191FF1F9D91FF1F9E91FF1FE6
S1131A30A091FF1F9F91FF1FAA91FF1F70B56148DE
S1131A40006850F000605F4908605F48006850F427
S1131A5000505D49086000F073F800205B4908609D
S1131A6000205B49086000205A49086000205A4958
S1131A700860002059490860002059490860594805
S1131A80006850F01600574908605748006840F253
S1131A90F9110843544908600F2054490860534819
S1131AA0006850F04000514908604E480068000644
S1131AB0FBD44E480068400601D500203FE04C4866
S1131AC000684C4909684C4A12684C4B1B684C4EE0
S1131AD0366808181018181830184A490968081880
S1131AE00500ADB2022095FBF0F5ADB255F400400F
S1131AF0454908604548006845490968454A1268EF
S1131B00454B1B68454E36680818101818183018CD
S1131B104349096808180400A4B2022094FBF0F4B5
S1131B20A4B254F400403F49086000203E490860D4
S1131B3019202D49086000202C490860012070BD3F
S1131B4000202949086000203849086000203849ED
S1131B5008600020374908600020334908600020ED
S1131B602249086070471F480068000601D501201B
S1131B7000E00020704700202C4908600720194924
S1131B80086070470020294908600420154908604E
S1131B9070470020254908600520124908607047F5
S1131BA000202249086006200E4908607047002082
S1131BB01E49086016200B49086070471E480068DB
S1131BC0704700003C8004403880044018C0044042
S1131BD01CC0044040D0044044D0044048D00440D9
S1131BE04CD0044000B0034008B0034024B003408C
S1131BF04CB0034048B0034044B0034040B00340FD
S1131C003CB0034038B003402CB003406CB00340F8
S1131C1068B0034064B0034060B003405CB003406C
S1131C2058B0034030B0034020B003400CB0034030
S1131C3018B003401CB0034010B0034070B504005A
S1131C4000250026DFF8D806007810F001000028EF
S1131C5002D07D20060001E07B200600002C03D08A
S1131C602078F6B2864201D2022028E0DFF8B006DE
S1131C700078C0F34000C0B2002801D104201EE067
S1131C80DFF8A0060078002801D0012017E020002A
S1131C9000F0D9F9DFF89016086000220121DFF87E
S1131CA08806006802F0E6FF0500EDB2002D05D1BC
S1131CB00120DFF870160870002000E0032070BDDA
S1131CC02DE9F04104000D0000265FF00008DFF864
S1131CD05006007810F00100002804D07D208046D2
S1131CE0201D070003E07B208046A01C0700002C79
S1131CF004D020785FFA88F8804501D2022040E0C1
S1131D00DFF81C060078C0F34000C0B2002801D1FF
S1131D10042036E0DFF80C060078002801D001200A
S1131D202FE0DFF80816380003F016F80600F6B2C4
S1131D30002E25D1002D10D0DFF8F4050560DFF862
S1131D40F005006800F071F9DFF8D405007850F070
S1131D501000DFF8CC15087007E0DFF8C405007840
S1131D6010F0EF00DFF8B815087001206070DFF89C
S1131D70B80504600220DFF8AC150870002000E00C
S1131D800320BDE8F0810100DFF894050078C0F37A
S1131D904000C0B2002801D1042004E0DFF88C0523
S1131DA0007908700020704780B501F027FA01F02F
S1131DB056FA01F06DFA322000F0D4FB01F06FFA0C
S1131DC001F029FA0028FBD03C2000F013FB0A2183
S1131DD03C2000F090FB01F02EFA032001F0A0FA61
S1131DE0322000F0BFFB00F0FDFB03F0C1F801203E
S1131DF003F09AF80B20DFF83C1508700020DFF898
S1131E00241508700020DFF8241508710020DFF87D
S1131E101C1508600020DFF8201508701B20DFF86F
S1131E201C150870DFF8F804007810F0FE00DFF8E5
S1131E30F0140870DFF8E804007810F0FD00DFF813
S1131E40E0140870DFF8D804007810F0FB00DFF825
S1131E50D0140870DFF8C804007810F0F700DFF839
S1131E60C0140870DFF8B804007810F0EF00DFF851
S1131E70B0140870DFF8A804007810F0DF00DFF871
S1131E80A0140870DFF89804007810F0BF00DFF8A1
S1131E9090140870DFF88804007810F07F00DFF8F1
S1131EA080140870DFF87804007850F00200DFF83E
S1131EB070140870002002BD38B50400E4B20B2C85
S1131EC002DBE4B21B2C01DB022028E0DFF8500423
S1131ED00078C0F34000C0B2002801D104201EE005
S1131EE0DFF840040078002806D0DFF838040078D2
S1131EF0042801D0012012E02000C0B202F0E6FF65
S1131F00050001F0A5F93C2000F010FBEDB2002D16
S1131F1004D1DFF820040470002000E0032032BD67
S1131F2038B50400E4B2202C02DAE4B2032C01DA5E
S1131F30022020E0DFF8E8030078C0F34000C0B2DC
S1131F40002801D1042016E0DFF8D8030078002827
S1131F5006D0DFF8D0030078042801D001200AE07D
S1131F602000C0B202F0D6FF0500EDB2002D01D171
S1131F70002000E0032032BD10B50400DFF8A40304
S1131F800078002806D0DFF89C030078042801D0EC
S1131F90012004E02000C0B203F0F5F8002010BDD9
S1131FA0DFF87C13097860F30001DFF87423117003
S1131FB0704738B50120DFF88C1309780B39884055
S1131FC00500DFF87C03008805420BD1ADB2002D7B
S1131FD008D0DFF870030078401CDFF8681308703D
S1131FE06D00EEE7DFF85C0300781B2801D10220C6
S1131FF01AE0DFF85003007802F068FF0400E4B24E
S1132000002C0FD1DFF818030078C0F38010C0B2A1
S1132010002803D0002002F0FBFE05E0012002F0BE
S1132020F7FE01E02000C0B232BD10B582B004005A
S113203000A803F007F90098211D0818009000A8D3
S113204003F0A9F813BD01000800B54A127812F094
S11320500102002A08D108000278921C02707E2234
S11320604270FF22827003E08A1C10000A7802701A
S11320700278921C0270704780B5AA480078012843
S113208011D1A748007810F00100002804D1A64817
S113209000680178891E01700020FFF77AFB002098
S11320A0A049087013E09F48007804280FD19C4889
S11320B00078C0F3C000C0B2002808D0092000F0A6
S11320C051FA00220121A048006802F0D3FD01BDAD
S11320D010B59348007810F00100002805D192480B
S11320E000688178891E817005E08F4800688E49F8
S11320F00968097981708A48007810F00100002885
S11321000FD189480068C0787E2806D186480068C7
S11321100079FF2801D1012000E00020C0B200288E
S113212007D08148006800787F4909688978884227
S113213023D27E497C480068801C02F00DFE040016
S1132140E4B2002C0BD176480078C0F30010C0B282
S113215000281FD076480068FFF767FF1AE00420C4
S113216071490968487003F04AF86F480068FFF73E
S113217014FB00206B4908700CE002206A490968CE
S1132180487003F03CF868480068FFF706FB00203D
S11321906449087010BD70B504006348006869495B
S11321A00978081800F80B4C66480078401C65490B
S11321B00870FFF7FEFE0500EDB2002D14D01B20C1
S11321C05E4908705B48007802F080FE06005B48B8
S11321D00078FFF7EBFA5248007810F0DF0050491E
S11321E0087000204F49087070BD38B504004C4891
S11321F00078C0B2C009C0B2002808D04E480470AC
S11322004748007810F07F004549087034E044489E
S11322100078C0F38010C0B200282DD04648007862
S1132220E4B2844205D244480470464800784349E5
S113223008703D48006843490978081800F80B4CB9
S113224040480078401C3F490870FFF7B2FE050083
S1132250EDB2002D10D039480078FFF7A7FA3548C1
S1132260007802F033FE2E49097811F0BF012C4AA0
S1132270117000212B4A117031BD10B52948007826
S1132280022817D1294928480068801C02F064FDFF
S11322900400E4B2002C34D00420234909684870B7
S11322A002F0ADFF20480068FFF777FA00201D49CF
S11322B0087026E01B480078012806D1002201217D
S11322C01948006802F0D6FC1BE016480078032881
S11322D002D1FFF76EFE14E011480078C0B2C009C5
S11322E0C0B200280DD0002002F092FD002808D0D2
S11322F0FF20114908700A48007810F07F0008494F
S1132300087010BD80B50320074909684870064865
S11323100068FFF742FA00200249087001BD00007E
S11323208091FF1FB791FF1F7C91FF1F2891FF1F12
S11323307491FF1FB891FF1FB691FF1FBA91FF1F41
S11323409491FF1FB991FF1F7891FF1F704710B43C
S113235050F8041B81B102681218001D50F8043BA8
S1132360DC0744BFA9F10104E31852F8044B43F815
S1132370044B091FF9D1EBE710BC7047103A07D39F
S113238030B4B1E83810103AA0E83810F9D230BCB3
S1132390530724BFB1E80810A0E8081044BF51F85F
S11323A0043B40F8043BD20724BF31F8022B20F849
S11323B0022B44BF0B7803707047083A07D3B1E887
S11323C00810083A40F8043B40F804CBF7D253070E
S11323D0E4E750F8041B61B150F8042BD30744BF61
S11323E0A9F101039A18002342F8043B091FFAD10A
S11323F0EFE7704710B401005C2901DB002045E0E1
S1132400202091FBF0F00200002A03D0022A27D0FA
S113241013D338E00120202391FBF3F404FB1314BD
S1132420A040474B18600120202391FBF3F404FBE8
S11324301314A040434B186027E00120202391FB94
S1132440F3F404FB1314A0403F4B18600120202335
S113245091FBF3F404FB1314A0403C4B186014E00C
S11324600120202391FBF3F404FB1314A040384B08
S113247018600120202391FBF3F404FB1314A04003
S1132480344B186001E0002000E0012010BC7047CC
S113249010B401005C2901DB00202AE0202091FB1C
S11324A0F0F00200002A03D0022A15D00AD31DE05E
S11324B00120202391FBF3F404FB1314A040264BCA
S11324C0186015E00120202391FBF3F404FB13149E
S11324D0A040224B18600BE00120202391FBF3F471
S11324E004FB1314A0401E4B186001E0002000E020
S11324F0012010BC704702005C2A01DB00200BE0C5
S1132500102901DB002007E002F1604010F564406F
S11325100300080118700120704780F31088704789
S11325200020EFF31081080072B67047012110F00B
S11325301F029140024AC0B2430942F82310704777
S113254080E200E000E100E084E200E004E100E079
S113255088E200E008E100E080E100E084E100E0DE
S113256088E100E0DFF8B010096851F00101DFF8FC
S1132570A8201160DFF8A410096849084900DFF8B1
S11325809C20116080B2DFF8981008600521DFF804
S113259094201160DFF88410096851F00101DFF81C
S11325A07C201160DFF8741009680906FAD5DFF899
S11325B06C10096849084900DFF860201160DFF8F1
S11325C05810096849084900DFF84C201160704729
S11325D0D2B2002A05D00B780370401C491C521E4D
S11325E0F6E7704780B502F03BFE0F4908600E48DD
S11325F000684FF47A7148430C4908600B4800683E
S11326000B490968C1F30361491CB0FBF1F00949A6
S1132610086001BD00000000388004400000044050
S113262008000440040004405C91FF1F5891FF1F00
S1132630448004406091FF1FF0B403000026300082
S11326401E6836783606FBD570261F683E70002655
S11326503400C9B2E4B2A14252D3E4B2002C11D086
S1132660022C19D013D3042C20D01AD3062C27D033
S113267021D3082C2ED028D30A2C35D02FD30B2CC1
S113268037D03BE0E4B2A65C1F68FE7136E0E4B2EA
S1132690A65C1F68BE7131E0E4B2A65C1F687E715F
S11326A02CE0E4B2A65C1F683E7127E0E4B2A65CAD
S11326B01F68FE7222E0E4B2A65C1F68BE721DE0D1
S11326C0E4B2A65C1F687E7218E0E4B2A65C1F68E0
S11326D03E7213E0E4B2A65C1F68FE730EE0E4B23F
S11326E0A65C1F68BE7309E0E4B2A65C1F687E7333
S11326F004E0E4B2A65C1F683E73FFE7641CA8E72D
S113270080261F683E701E6836783606FBD51E6824
S113271036783500AE0602D50426300008E0EE0611
S113272002D50826300003E0EE0701D5102630005C
S1132730F0BC7047DFF8CC120968DFF8C8221160DA
S1132740DFF8C412096851F00101DFF8BC221160FE
S1132750002101610021C16170472DE9F8430400A3
S1132760894615000020060015EB09000700606883
S1132770814504D36068A1680818B84211D2E068A2
S1132780814504D3E06821690818B84201D20220C7
S11327903CE0E068B9EB000010F500090020804639
S11327A005E06068B9EB00094FF400608046B9FBAE
S11327B0F8F008FB1090002802D04FF4807025E058
S11327C0B5FBF8F008FB1050002801D001201DE0F3
S11327D0002D1AD009208DF800005FEA19408DF809
S11327E001005FEA19208DF8020048468DF80300C5
S11327F000AA03212000FFF71FFF0600002E04D1CA
S1132800B5EB080518EB0909E2E73000BDE8F283EF
S11328102DE9FE4F04008B4692461D0002A87B4919
S11328200A6802605FF00009002006001AEB0B0042
S113283007005FEA9B008000584505D05FEA9B0BC8
S11328405FEA8B0B1BF1040B0420BAFBF0F101FBD4
S113285010A189465FFA89F9B9F1000F08D05FFA2F
S113286089F9BAEB090A1AF104006949086002E01F
S11328706748C0F800A06068834504D36068A16815
S11328800818B8420FD2E068834504D3E068216990
S11328900818B84201D202206FE0E068BBEB0000E8
S11328A010F5000B02E06068BBEB000BBAF1000FFF
S11328B027D006208DF800005FEA1B408DF8010048
S11328C05FEA1B208DF8020058468DF80300E87873
S11328D08DF80400A8788DF8050068788DF8060056
S11328E028788DF8070000AA07212000FFF7A4FE2E
S11328F00600002E05D11BF1040BBAF1040A2D1DAC
S1132900D4E75FFA89F9B9F1000F35D00020804689
S11329105FFA88F85FFA89F9C84509D228786D1CEE
S113292002A95FFA88F808F8010018F10108EFE736
S113293006208DF800005FEA1B408DF801005FEA75
S11329401B208DF8020058468DF803009DF80B00FB
S11329508DF804009DF80A008DF805009DF8090023
S11329608DF806009DF808008DF8070000AA0721DD
S11329702000FFF761FE06003000BDE8FE8F2DE960
S1132980F84F04008B4615001E001BF0030800A836
S113299020490A6802605FFA88F8B8F1000F28D06D
S11329A05FEA9B0B5FEA8B0B00A88246DBF8000012
S11329B0CAF80000D8F104000700FFB2042F06DAB9
S11329C03078761C00A9FFB278547F1CF5E700AB81
S11329D0042259462000FFF71BFF8146B9F1000F7E
S11329E001D048460BE01BF1040B5FFA88F8B5EB05
S11329F0080533002A0059462000FFF709FFBDE807
S1132A00F28F0000448004403C800440FC580000E5
S1132A106891FF1FFC58000013005A1E002B04D0BD
S1132A200378401C0B70491CF6E77047DFF87C08FC
S1132A30006850F48060DFF874180860DFF87008EC
S1132A40006850F40050DFF868180860DFF8640884
S1132A50006830F4E060DFF85C180860DFF85408C0
S1132A60006850F40070DFF84C180860DFF848087C
S1132A70006830F4E060DFF840180860DFF83808D8
S1132A80006850F40070DFF830180860DFF82C0894
S1132A90006830F4E060DFF824180860DFF81C08F0
S1132AA0006850F40070DFF814180860DFF81008AC
S1132AB0006830F4E060DFF808180860DFF8000808
S1132AC0006850F40070DFF8F8170860DFF8F407C6
S1132AD0DFF8F4170860DFF8F407DFF8F41708608C
S1132AE0DFF8F007DFF8F01708600020DFF8EC17D4
S1132AF008607047F8B504000D00FFF711FD0700EA
S1132B00DFF8C407006850F44060DFF8BC170860C1
S1132B10DFF8CC070068DFF8CC170843DFF8C017EC
S1132B200860E4B214F03F000600DFF8BC07064377
S1132B30DFF8B8070660EDB22E00DFF8B4070643ED
S1132B40DFF8A8070660DFF8800700684008400047
S1132B50DFF874170860DFF888070068C000FAD54A
S1132B60DFF87C070068DFF87C170843DFF870178C
S1132B700860DFF85407006840F601410843DFF8B5
S1132B80481708603800FFF7C8FCF1BD2DE9F84389
S1132B9004000D0016005FF00008F6B2002E01D00C
S1132BA0002D00D186E0FFF7BBFC8146DFF8180753
S1132BB0006850F44060DFF810170860DFF8200761
S1132BC00068DFF820170843DFF814170860E4B240
S1132BD014F03F000700DFF810070743DFF80C0785
S1132BE0076018F10108F6B2022E11DB5FFA88F8CB
S1132BF0B8F1040F0CDA287807006D1CDFF8E8063A
S1132C000743DFF8E8060760761E18F10108EAE7D3
S1132C10DFF8B406006840084000DFF8AC1608602E
S1132C20F6B2022E17DB287807006D1CDFF8B80611
S1132C300743DFF8AC0600680028FAD5DFF8A006E1
S1132C40006850F00040DFF898160860DFF89C0632
S1132C500760761EE4E728780700DFF89406074348
S1132C60DFF87C0600680028FAD5DFF874060068EF
S1132C7050F00040DFF868160860DFF8700607605F
S1132C80DFF85C060068C000FAD5DFF85406006877
S1132C90DFF850160843DFF848160860DFF8280606
S1132CA0006840F601410843DFF81C1608604846F6
S1132CB0FFF733FCBDE8F1832DE9F04104000D007A
S1132CC00027EDB2002D01D0002C00D17FE0FFF7EA
S1132CD027FC8046DFF8F005006850F44060DFF818
S1132CE0E8150860DFF8F8050068DFF8F815084310
S1132CF0DFF8EC15086040200600DFF8EC05064319
S1132D00DFF8E80506607F1CEDB2022D0EDBFFB292
S1132D10042F0BDA20780600641CDFF8CC05064388
S1132D20DFF8C80506606D1E7F1CEDE7DFF8980527
S1132D30006840084000DFF890150860EDB2022DED
S1132D4017DB20780600641CDFF89C050643DFF8D7
S1132D50900500680028FAD5DFF88405006850F073
S1132D600040DFF87C150860DFF8800506606D1E02
S1132D70E4E720780600DFF878050643DFF860050D
S1132D8000680028FAD5DFF85805006850F00040C4
S1132D90DFF84C150860DFF854050660DFF84005DD
S1132DA00068C000FAD5DFF83805006850F010401C
S1132DB0DFF82C150860DFF81005006840F60141C3
S1132DC00843DFF8041508604046FFF7A6FBBDE89A
S1132DD0F081F8B50400FFF7A3FB0700DFF8E8046F
S1132DE0006850F44060DFF8E0140860DFF8F00495
S1132DF00068DFF8F0140843DFF8E4140860E4B274
S1132E0014F03F0050F080000500DFF8E8040543AB
S1132E10DFF8D8040560DFF8E0040500DFF8CC042F
S1132E200560DFF8A404006840084000DFF8981447
S1132E300860DFF8AC040068C000FAD5DFF8A0042D
S1132E400068DFF8A0140843DFF894140860DFF882
S1132E507804006850F00100DFF86C140860DFF8B3
S1132E609C0400680600DFF86004006850F44060C9
S1132E70DFF8541408603800FFF74FFB3000C0B28D
S1132E80F2BD2DE9F04104000D001600F6B2002E4B
S1132E9001D0002D00D189E0FFF742FB8046DFF826
S1132EA02804006850F44060DFF81C140860DFF860
S1132EB030040068DFF82C140843DFF82414086099
S1132EC0E4B214F03F0050F080000700DFF824045F
S1132ED00743DFF818040760DFF8EC0300684008D4
S1132EE04000DFF8E4130860DFF8F403006800280A
S1132EF0FAD5DFF8EC03006850F00040DFF8E01387
S1132F000860DFF8C403006850F48060DFF8B81389
S1132F100860F6B2022E1BDB00200700DFF8D403A2
S1132F200743DFF8C8030760DFF8B403006800282C
S1132F30FAD5DFF8AC03006850F00040DFF8A013C6
S1132F400860DFF8BC03006828706D1C761EE0E79B
S1132F5000200700DFF8A0030743DFF890030760B1
S1132F60DFF87C030068C000FAD5DFF8940300683A
S1132F7028706D1CDFF868030068DFF868130843E5
S1132F80DFF85C130860DFF84003006850F00100CC
S1132F90DFF834130860DFF83003006850F4406051
S1132FA0DFF8241308604046FFF7B7FABDE8F08164
S1132FB0F8B504000D00EDB2002D01D0002C00D1B5
S1132FC085E0FFF7ADFA0700DFF8FC02006850F473
S1132FD04060DFF8F4120860DFF804030068DFF8EB
S1132FE004130843DFF8F8120860C0200600DFF875
S1132FF004030643DFF8F4020660DFF8CC0200683D
S113300040084000DFF8C0120860DFF8D40200680E
S11330100028FAD5DFF8C802006850F00040DFF855
S1133020C0120860DFF8A002006850F48060DFF886
S113303098120860EDB2022D1BDB00200600DFF8B9
S1133040B4020643DFF8A4020660DFF894020068C5
S11330500028FAD5DFF88802006850F00040DFF855
S113306080120860DFF8980200682070641C6D1EEE
S1133070E0E700200600DFF880020643DFF86C0278
S11330800660DFF85C020068C000FAD5DFF8700261
S113309000682070641CDFF848020068DFF84412FE
S11330A00843DFF83C120860DFF81C02006850F0A7
S11330B00100DFF814120860DFF80C02006850F415
S11330C04060DFF8041208603800FFF726FAF1BD0B
S11330D0F8B504000D003E26FFF722FA0700DFF8DA
S11330E0E801006850F44060DFF8DC110860DFF8A4
S11330F0F0010068DFF8EC110843DFF8E411086020
S1133100DFF8E4010643DFF8E4010660E4B22600D8
S1133110DFF8D4010643DFF8D4010660EDB22E00D7
S1133120DFF8CC010643DFF8C4010660DFF898013C
S1133130006840084000DFF890110860DFF8A00143
S11331400068C000FAD5DFF898010068DFF8941130
S11331500843DFF88C110860DFF86C01006840F662
S113316001410843DFF8601108603800FFF7D5F922
S1133170F1BDF8B50400BE26FFF7D2F907005248A6
S1133180006850F44060504908605548006855494B
S11331900843534908605748064354480660E4B25C
S11331A026005448064351480660534806004F48D9
S11331B006604548006840084000434908604848A4
S11331C00068C000FBD546480068464908434449A6
S11331D008603D48006850F001003B4908604948D8
S11331E0006805003848006850F4406036490860BB
S11331F03800FFF792F92800C0B2F2BD2B480068EE
S113320050F48060294908603F48006850F4807099
S11332103D490860704701203C490968090701D508
S113322000210800C0B270473748006830F47020AD
S11332303549086070473448006850F0807032495E
S113324008603148006850F400202F490860704736
S11332502D48006850F080702B490860704713486F
S1133260006850F48060114908602948006850F4EF
S1133270A070274908602748006850F400202549B9
S113328008602548006850F400202349086070470E
S11332902248006850F400202049086070471D4807
S11332A0006850F400201B490860704738800440CF
S11332B03C80044028A004402CA0044040A00440CA
S11332C044A00440013C018100D0024012000038B7
S11332D00CD002401200013810D0024030D002401D
S11332E02CD00240000002900000018034D0024043
S11332F000000108000001900000011880D0024085
S113330038D0024084D002400CA0044050F00F405A
S11333104CA0044044F00F4054F00F4048F00F40DC
S113332038B5040014F0070050F088000500E4B23A
S1133330082C01D1832005002900C9B23C20FFF7E5
S1133340D9FB31BDDFF88813C0B2405C10F0E00057
S11333507047DFF87C23C0B2825C12F01F020A437C
S1133360DFF86C33C0B2C2547047DFF86413C0B2E4
S1133370405C10F01F007047DFF858130968C90952
S11333804843704710B52A20FFF734F803212A2058
S1133390FFF7B1F8DFF84003006850F08070DFF801
S11333A038130860DFF834030068002801D10120D5
S11333B000E00020C0B20020DFF820130860DFF82E
S11333C020030068002801D1012000E00020C0B2E1
S11333D0DFF81003006850F00400DFF808130860F9
S11333E0DFF80003006840084000DFF8F8120860C6
S11333F00020DFF8F41208605020DFF8E4120860BF
S11334004FF6FF740820FFF7B7FF201ADFF8DC122D
S113341008800420FFF7B0FFDFF8D412086010BD65
S113342010B500200400222C0ED2DFF8A402205C88
S1133430002807D180212000C0B2FFF78AFF2000B6
S1133440C0B202E0641CEEE7FF2010BD80B5DFF8D7
S11334508C020068000607D5DFF88002006830F0AF
S11334608000DFF878120860DFF874020068000654
S113347009D5DFF86C02006830F08000DFF86012D4
S1133480086000F03AF801BD70B50400FFF748F891
S113349006002000C0B2FFF755FF0500EDB2202D55
S11334A002D0EDB2402D24D180212000C0B2FFF71C
S11334B050FF2000C0B2FFF758FFC00608D5DFF860
S11334C03C020078401E8D4908708C48007806E064
S11334D088480078401E87490870864800788548E7
S11334E00078002805D185480078002801D100F033
S11334F004F83000FFF711F870BD2DE9F84FFFF71D
S11335000FF882467E48006883465046FFF705F868
S11335107C480088BBEB000007007A48A0F800B0A4
S1133520002081465FFA89F9B9F1220F63D2FEF7D0
S1133530F7FF82464846C0B2FFF704FF0600F6B222
S1133540402E08D120214846C0B2FFF702FF504662
S1133550FEF7E3FF4CE05046FEF7DFFFF6B2202E05
S113356046D1BFB264485FFA89F90C2101FB090016
S11335704068874210D260485FFA89F90C2101FB48
S113358009004068BFB2C01B5B495FFA89F90C228D
S113359002FB091148602BE04846C0B2FFF7E5FE84
S11335A08DF800009DF800000D21084204D0484623
S11335B0C0B2FFF769FF0DE04F485FFA89F90C21AB
S11335C001FB090000684C495FFA89F90C2202FBEF
S11335D00911486048485FFA89F90C2101FB090088
S11335E0806805002800002802D04846C0B2A847D9
S11335F019F1010996E73D4800880400002081463E
S11336005FFA89F9B9F1220F1AD24846C0B2FFF71E
S113361099FE202811D138485FFA89F90C2101FB61
S113362009004068A4B2A04207D233485FFA89F97E
S11336300C2101FB09004068040019F10109DFE7CE
S1133640FEF76EFF82462E4800688046B8EB0B08F2
S11336501FFA88F8A4B2A04505D32548006810EBEA
S1133660080004000DE0A4B21FFA88F8B4EB0800C7
S11336701F490968884204D21D48006810EB0800FD
S113368004001BEB0404A4B21F4804605046FEF778
S113369044FF1848007800280AD118480078002808
S11336A006D100200D4908600020184908700CE07C
S11336B016480078002808D10848006850F00F0028
S11336C006490860012011490870BDE8F18F000027
S11336D0A090FF1F4880FF1F3C80044000800340EF
S11336E00C80034054800340088003409891FF1FDE
S11336F08491FF1FBB91FF1FCC8BFF1FBC91FF1F49
S1133700048003409691FF1F10800340BD91FF1F6A
S11337102DE9F04104000D0016005FF000080020C0
S11337202C49087000F05CF82B482C490860287874
S11337300700300000F027F8FFB2002F17D06660B2
S11337402100300000F03CF822480078401C214958
S1133750087014F108014046C0B200F042F818F1B4
S113376001086878001910F108047F1EE4E76878FE
S11337707072A8783072307A002802D00C362D1D71
S1133780D5E7BDE8F08100210160704770B5040001
S11337900D00002D01D0002C00D110E0083D0020C8
S11337A02860FEF7BDFE06002068002802D060688D
S11337B0056000E0256065603000FEF7AEFE70BD78
S11337C038B504000D006C60083529002000FFF7AF
S11337D0DDFF31BDB591FF1F8890FF1F6491FF1F6E
S11337E07047704780B5DFF87C00006850F4805063
S11337F0DFF870100860DFF87000006830F4E060F3
S1133800DFF864100860DFF86000006850F480702E
S1133810DFF854100860DFF85400006830F4E0600A
S1133820DFF848100860DFF84400006850F4807046
S1133830DFF838100860DFF83800006850F018002E
S1133840DFF82C100860DFF82C00006850F0180036
S1133850DFF820100860FFF7E3FDDFF81C100870A4
S113386001BD00003880044010C004400CC0044076
S1133870D4F00F40C0F00F404C80FF1F38B5040057
S1133880DFF8C00DE4B2342101FB04056868C07997
S113389029696A6A5054686A401C6862686A69697E
S11338A0884201D300206862E86A6969884203D2C9
S11338B0E86A401CE86208E0A86A401CA862A86A9A
S11338C06969884201D30020A862E4B2012C08D1BE
S11338D0DFF8200E0068002803D0DFF8180E006817
S11338E0804731BD10B582B00400E4B2012C40F031
S11338F0FD80DFF8500D90F865000228C0F28B803F
S1133900DFF8400D806B007C000640F18480DFF816
S1133910340D806B0079000640F1E680DFF8240D59
S113392090F86500DFF81C1D896B097D401A012899
S11339306ADBDFF8100D406BC0F34000002863D051
S1133940DFF8B40DDFF8B41D097850F83100DFF862
S1133950B01D0978085CDFF8EC1C896BC871DFF8CE
S1133960A00D0078401CDFF8981D0870DFF8900D5A
S11339700078DFF8EC1DDFF8842D1278515C884262
S1133980CCD30020DFF8D81DDFF8702D1278505406
S1133990DFF8640DDFF8641D097810EBC10040689E
S11339A0002802D0012000F080FF0020DFF8501D25
S11339B00870DFF8480D0078401CDFF8401D0870DF
S11339C0DFF8380D0078032803D30020DFF82C1D1E
S11339D00870DFF88C0DDFF8241D0978085C0028D6
S11339E09CD1DFF8600C806BC07810F0BF00DFF86A
S11339F0541C896BC870DFF84C0C406B30F002002B
S1133A00DFF8401C486389E7DFF8380C806B0079E5
S1133A108DF8000068E0DFF82C0C806B00798DF8DD
S1133A200000DFF8D40CDFF8D41C097850F831001A
S1133A30DFF8CC1C0978085CDFF8081C896BC871B6
S1133A40DFF8BC0C0078401CDFF8B41C0870DFF809
S1133A50B00C0078DFF8081DDFF8A02C1278515C58
S1133A60884241D30020DFF8F81CDFF8902C12784C
S1133A705054DFF8840CDFF8841C097810EBC10083
S1133A804068002802D0012000F00FFF0020DFF87A
S1133A90701C0870DFF8640C0078401CDFF85C1CB4
S1133AA00870DFF8580C0078032803D30020DFF8EF
S1133AB04C1C0870DFF8A80CDFF8401C0978085C7F
S1133AC0002811D1DFF87C0B806BC07810F0BF00A8
S1133AD0DFF8701B896BC870DFF8680B406B30F03F
S1133AE00200DFF8601B48639DF8000013BD10B5A9
S1133AF00400DFF8500BE4B2342101FB0400006839
S1133B0030F00400DFF83C1BE4B2342202FB041161
S1133B100860DFF8300BE4B2342101FB0400406894
S1133B20DFF8201BE4B2342202FB04114968C9788F
S1133B3011F0DF01C170E4B2012C08D1DFF8B40B3D
S1133B400068002803D0DFF8AC0B0068804710BD84
S1133B5002000020521A002A01D580B201E0401C64
S1133B60F8E7704730B40200D2B2042A01DB0D201A
S1133B70B9E0DFF8D00AD2B2342404FB02000078A2
S1133B80C00701D50120AEE0DFF8B80AD2B2342470
S1133B9004FB02004068002801D10620A3E0DFF8FE
S1133BA0A40AD2B2342404FB02004068DFF8944A29
S1133BB0D2B2342505FB02446468E47814F0F304BB
S1133BC0C470DFF8800AD2B2342404FB02004068D7
S1133BD000248470DFF86C0AD2B2342404FB02009F
S1133BE04068DFF8604AD2B2342505FB02446468B9
S1133BF0E47814F09F04C470DFF8480AD2B2342485
S1133C0004FB0200406800248471DFF8380AD2B251
S1133C10342404FB0200406800248472DFF8240A80
S1133C20D2B2342404FB020040680024C472DFF8DA
S1133C30140AD2B2342404FB0200006850F00100DC
S1133C40DFF8004AD2B2342505FB02442060DFF8D5
S1133C50F409D2B2342404FB0200006830F00400FA
S1133C60DFF8E049D2B2342505FB02442060DFF8D6
S1133C70D409D2B2342404FB0200006830F00200FC
S1133C80DFF8C049D2B2342505FB02442060DFF8D6
S1133C90B409D2B2342404FB02000162DFF8A4099F
S1133CA0D2B2342404FB0200406800790300DFF838
S1133CB09409D2B2342404FB020040684079030022
S1133CC0DFF88009D2B2342404FB02004068DFF834
S1133CD07449D2B2342505FB02446468E47854F094
S1133CE00C04C470002030BC70472DE9F04104007E
S1133CF00D00E4B2042C01DB0D2045E2002D01D1BE
S1133D00062041E2DFF83C09E4B2342101FB04005F
S1133D100078C00701D4022036E2DFF82809E4B2B3
S1133D20342101FB0400006A4FF47A714843C0084F
S1133D302968884201D2082026E2DFF80809E4B2A3
S1133D40342101FB04000068C0F38000002801D086
S1133D50032019E2DFF8EC08E4B2342101FB04008B
S1133D600068C0F34000002801D004200CE2287948
S1133D70002803D0022839D013D35CE0DFF8C4084C
S1133D80E4B2342101FB04004068DFF8B818E4B25F
S1133D90342202FB04114968897811F0FD01817015
S1133DA04BE0DFF8A008E4B2342101FB04004068D2
S1133DB0DFF89018E4B2342202FB041149688978D0
S1133DC051F002018170DFF87C08E4B2342101FB78
S1133DD004004068DFF86C18E4B2342202FB0411DA
S1133DE04968897811F0FE01817026E0DFF85408F3
S1133DF0E4B2342101FB04004068DFF84818E4B25F
S1133E00342202FB04114968897851F0020181705F
S1133E10DFF83008E4B2342101FB04004068DFF825
S1133E202418E4B2342202FB04114968897851F061
S1133E300101817001E00920A6E16879002802D01F
S1133E40012813D025E0DFF8FC07E4B2342101FB9C
S1133E5004004068DFF8EC17E4B2342202FB0411DA
S1133E604968897811F0F701817014E0DFF8D4070C
S1133E70E4B2342101FB04004068DFF8C817E4B25F
S1133E80342202FB04114968897851F008018170D9
S1133E9001E00A2078E1A879012867D1E4B2012C75
S1133EA00AD14FF44070DFF8541B08604FF440709F
S1133EB0DFF84C1B08600CE0E4B2022C09D14FF48B
S1133EC04070DFF8401B08604FF44070DFF8601B5F
S1133ED00860E879012812D1DFF86807E4B23421D8
S1133EE001FB04004068DFF85C17E4B2342202FBF3
S1133EF004114968497B51F00401417311E0DFF872
S1133F004407E4B2342101FB04004068DFF83417AD
S1133F10E4B2342202FB04114968497B11F0FB012D
S1133F204173DFF82007E4B2342101FB0400406848
S1133F30DFF81017E4B2342202FB04114968497B0C
S1133F4051F008014173DFF8FC06E4B2342101FBAF
S1133F5004004068DFF8EC16E4B2342202FB0411DA
S1133F604968497B51F00101417311E0DFF8D4063F
S1133F70E4B2342101FB04004068DFF8C816E4B25F
S1133F80342202FB04114968497B11F0F2014173A8
S1133F900120DFF8B016E4B2342202FB041181F8E8
S1133FA030000120DFF89C16E4B2342202FB041135
S1133FB081F83100DFF88C06E4B2342101FB0400FF
S1133FC04068007C10F00700401C0100481EC9B284
S1133FD0002911D0DFF86C16E4B2342202FB04117C
S1133FE091F830104900DFF85C26E4B2342303FB77
S1133FF0042282F83010E8E7DFF84806E4B23421FE
S113400001FB040090F83000022804DB01212000A9
S1134010C0B200F01CF9DFF82C06E4B2342101FB35
S113402004004068007CC0F30210401C0100481EDC
S1134030C9B2002911D0DFF80C16E4B2342202FB15
S1134040041191F831104900DFF8F825E4B2342363
S113405003FB042282F83110E8E7DFF8E805E4B254
S1134060342101FB040090F83100022804DB042110
S11340702000C0B200F076F9286800285FD02868D4
S11340800101DFF8C005E4B2342202FB0400006A37
S11340904FF47A725043FFF75BFD06000020DFF80F
S11340A0A415E4B2342202FB041149680870DFF855
S11340B09405E4B2342101FB040040680078B6B2F0
S11340C0310A11F01F010843DFF87815E4B23422F5
S11340D002FB041149680870DFF86805E4B2342172
S11340E001FB04004068467028680101DFF85405AC
S11340F0E4B2342202FB0400006ADFF8A82950432A
S1134100FFF726FDB6B2642101FB16000700642107
S11341107801FFF71DFD8046DFF82805E4B234215D
S113412001FB04004068DFF81C15E4B2342202FBF2
S113413004114968897A18F01F0211438172DFF86B
S11341400405E4B2342101FB04004068DFF8F414F0
S1134150E4B2342202FB04114968897951F00F0159
S11341608171DFF8E004E4B2342101FB040040680B
S1134170DFF8D014E4B2342202FB04114968C97890
S113418051F00C01C1700020BDE8F0810200D2B2F0
S1134190042A01DB0D2059E0002901D1062055E055
S11341A0DFF8A004D2B2342303FB02000078C00776
S11341B001D402204AE0DFF88C04D2B2342303FB9A
S11341C0020040688078800702D4002008710EE065
S11341D0DFF87004D2B2342303FB02004068807815
S11341E0C00702D50120087101E002200871DFF840
S11341F05404D2B2342303FB0200406880780007E1
S113420002D50120487101E000204871DFF8340430
S1134210D2B2342303FB02004068407B09231842D6
S113422011D001208871DFF81C04D2B2342303FBBF
S113423002004068407B400702D50120C87104E0B9
S11342400020C87101E0002088710020704730B55B
S113425083B004000D0000A92000C0B2FFF796FF50
S1134260E4B2042C01DB0D207BE0DFF8D803E4B2D8
S1134270342101FB040090F83000EDB2A84201D2D1
S11342800C206EE0DFF8BC03E4B2342101FB04002F
S11342900078C00701D4022063E0DFF8A803E4B289
S11342A0342101FB04000068C0F38000002801D021
S11342B0032056E0E348E4B2342101FB04004068E3
S11342C0E049E4B2342202FB04114968C97811F0D0
S11342D0F301C170DB48E4B2342101FB04004068FF
S11342E0D849E4B2342202FB04114968097C51F034
S11342F008010174D348E4B2342101FB040040688E
S11343004575D048E4B2342101FB04004068CD492E
S1134310E4B2342202FB04114968497C51F0C00123
S11343204174C848E4B2342101FB04004068C54923
S1134330E4B2342202FB04114968C97851F00C013B
S1134340C170EDB2BF48E4B2342101FB040000683F
S113435065F30F20BB49E4B2342202FB0411086068
S113436000203EBD30B583B004000D0000A920003C
S1134370C0B2FFF70BFFE4B2042C01DB0D2078E0A0
S1134380B048E4B2342101FB040090F83100EDB2EE
S1134390A84201D20C206CE0AA48E4B2342101FB0B
S11343A004000078C00701D4022062E0A548E4B20A
S11343B0342101FB04000068C0F34000002801D050
S11343C0042056E09F48E4B2342101FB0400406815
S11343D09C49E4B2342202FB04114968C97811F003
S11343E0F301C1709748E4B2342101FB0400406832
S11343F09449E4B2342202FB04114968097C51F067
S1134400800101748F48E4B2342101FB0400406848
S1134410C5748C48E4B2342101FB04004068894926
S1134420E4B2342202FB04114968497C51F0C00112
S113443041748448E4B2342101FB0400406881499A
S1134440E4B2342202FB04114968C97851F00C012A
S1134450C170EDB27B48E4B2342101FB0400006872
S113446065F317407749E4B2342202FB0411086073
S113447000203EBD70B40300DBB2042B01DB0D2031
S1134480DEE0002901D10620DAE092B2002A01D14F
S11344900720D5E0DFF80007DBB2342505FB030075
S11344A00078C00701D40220CAE0DFF8EC06DBB2D2
S11344B0342505FB03000068C0F38000002801D008
S11344C00320BDE00020DFF8D056DBB2342606FB23
S11344D0035528720020DFF8C056DBB2342606FBF1
S11344E003556881DFF8B006DBB2342505FB030011
S11344F0C06840084000DFF8A056DBB2342606FB53
S11345000355E860DFF89006DBB2342505FB0300B1
S1134510C06830F00200DFF88056DBB2342606FBB8
S11345200355E860DFF87006DBB2342505FB0300B1
S1134530C06830F00400DFF86056DBB2342606FBB6
S11345400355E860DFF85006DBB2342505FB0300B1
S1134550C06830F00800DFF84056DBB2342606FBB2
S11345600355E860DFF83006DBB2342505FB0300B1
S1134570016192B2DFF82006DBB2342505FB0300AB
S11345804261DFF81406DBB2342505FB0300006842
S113459050F00400DFF80056DBB2342606FB035566
S11345A02860DFF8F405DBB2342505FB030040681E
S11345B000790400DFF8E005DBB2342505FB0300D5
S11345C04068C0790400DFF8D005DBB2342505FB70
S11345D003004068DFF8C055DBB2342606FB035500
S11345E06D686D7C55F0400545740020DFF8A855D2
S11345F0DBB2342606FB035568620020DFF89855C9
S1134600DBB2342606FB0355A8620020DFF8885588
S1134610DBB2342606FB0355E862DFF87C05DBB227
S1134620342505FB03004068DFF86C55DBB2342603
S113463006FB03556D68ED7855F02005C570002024
S113464070BC7047608EFF1F10B50400E4B2042CE8
S113465001DB0D2024E0DFF84005E4B2342101FB46
S113466004000078C00701D4022019E0DFF828050F
S1134670E4B2342101FB04000068C0F38000002888
S113468001D100200CE00120DFF80C15E4B2342243
S113469002FB041108722000C0B2FFF728FA0020C0
S11346A010BD0100C9B2042901DB0D2021E0DFF8AF
S11346B0E804C9B2342202FB01000078C00701D427
S11346C0022016E0DFF8D004C9B2342202FB010054
S11346D00068C0F34000002801D1002009E0DFF8A1
S11346E0B804C9B2342202FB010040680022C2743B
S11346F0002070478C91FF1FFC90FF1FC191FF1F8A
S1134700C091FF1F0100C9B2042901DB0D2025E07F
S1134710DFF88404C9B2342202FB01000078C00728
S113472001D402201AE0DFF87004C9B2342202FB7B
S113473001000068C0F38000002801D003200DE0D0
S1134740DFF85404C9B2342202FB01000068C0F34C
S11347504000002801D0042000E000207047000041
S11347608891FF1F30B40200DFF82C04D2B2342346
S113477003FB0203D86A002801D100206AE0DFF8B5
S11347801804D2B2342404FB02004068DFF8084461
S1134790D2B2342505FB02446468E47814F0DF04E3
S11347A0C470DFF8F403D2B2342404FB02000069BD
S11347B0DFF8E443D2B2342505FB0244A46A205C4A
S11347C00870DFF8D403D2B2342404FB0200806AF8
S11347D0401CDFF8C443D2B2342505FB0244A06276
S11347E0DFF8B403D2B2342404FB0200806ADFF899
S11347F0A843D2B2342505FB02446469A04207D31E
S11348000020DFF89443D2B2342505FB0244A062B1
S1134810DFF88403D2B2342404FB0200C06A401ED1
S1134820DFF87443D2B2342505FB0244E062DFF8BA
S11348306803D2B2342404FB02004068DFF8584312
S1134840D2B2342505FB02446468E47854F02004B1
S1134850C470012030BC704730B4D2B2002A11D0E9
S1134860DFF83433C0B2342404FB00335B68DFF870
S11348702843C0B2342505FB00446468E4780C4343
S1134880DC7010E0DFF81033C0B2342404FB0033D2
S11348905B68DFF80443C0B2342505FB0044646858
S11348A0E4788C43DC7030BC704738B50400E4B263
S11348B0012C27D100200500EDB2032D22D2DFF810
S11348C0DC02EDB2285C00281AD1DFF8D402EDB284
S11348D010EBC5004068002812D0DFF8C402EDB226
S11348E050F83500DFF8B812EDB211EBC501496894
S11348F088470020DFF8A812EDB211EBC50148602B
S11349006D1CD9E731BD30B583B0DFF8980240683B
S1134910DFF884128863DFF88002806B002856D0A9
S1134920DFF88402006850F40060DFF87C1208604D
S1134930DFF87802006850F40050DFF87012086065
S11349404FF44070DFF8681208604FF44070DFF8ED
S1134950641208604BF680310120FFF703F904006C
S113496000208DF8040000208DF805005FF4E1308C
S1134970009000208DF8060000208DF8070000A9A3
S11349800120FFF7B2F92043040000200500EDB236
S1134990032D08DA0020DFF80812EDB211EBC5018F
S11349A048606D1CF3E72120FDF724FD0921212037
S11349B0FDF7A1FD2220FDF71DFD08212220FDF7B2
S11349C09AFDFA22DFF8F0110120FFF753FD37BDFD
S11349D010B50400DFF8E4010078002809D00020B5
S11349E0DFF8D8110870DFF8D801007820700120B2
S11349F003E021000120FFF7B5FE10BD0CD00440F8
S1134A0008D004404CD0044010B50400DFF8B401D1
S1134A100460DFF8B0010068002801D0012200E042
S1134A200022D2B204210120FFF716FF10BD0000BE
S1134A3048D00440F0B583B0040000250120FFF7FE
S1134A4061FE0700FFB2022F1AD000200600022EDA
S1134A5016D2FFB2032F05D10120FFF7F5FD012087
S1134A60050007E0FFB2042F03D10120FFF719FE70
S1134A7000E005E00120FFF745FE0700761CE6E7AD
S1134A8000A90120FFF782FB009400A90120FFF791
S1134A902CF9EDB2012D04D1FA2247490120FFF788
S1134AA0E9FCF7BDA086010080B53B48806B007926
S1134AB03949C8643848806B4079374908653648B5
S1134AC090F8500040060CD53348806B00784006BF
S1134AD007D53148806B407950F040002E49896BEE
S1134AE048712D48806BC07840070CD52A4890F84F
S1134AF04C00800607D52848806BC078800602D514
S1134B000120FEF7BBFE2448806BC07800070CD55B
S1134B10214890F84C00000607D51F48806BC078E8
S1134B20400602D50120FEF7DDFE01BD1A4A926B54
S1134B30127910000F22104203D0174A926BD279D7
S1134B401100154A926B927C920707D5124A926B18
S1134B50927C52F00202104B9B6B9A740E4A926B39
S1134B60927CD20707D50C4A926B927C52F00102D8
S1134B70094B9B6B9A74084A926B527C52F0400228
S1134B80054B9B6B5A74044A926B527C52F0800220
S1134B90014B9B6B5A747047608EFF1F8891FF1FF7
S1134BA0FC90FF1FC058000034800440388004404B
S1134BB004D0044000D00440648DFF1FBE91FF1F49
S1134BC0BF91FF1F8C91FF1F80B52248006850F4ED
S1134BD00060204908602048204908601E48204998
S1134BE008601D481F4908601B481F4908603D2094
S1134BF0FDF700FC01BD19480068C00105D51B483C
S1134C00006850F080001949086015480068C00128
S1134C1005D51648006850F0400014490860114852
S1134C200068C00105D51148006850F020000F4904
S1134C3008600D480068C00105D50C48006850F0B4
S1134C4010000A4908600A48006850F0F00008495A
S1134C50086070473880044003010A0010B0044023
S1134C6014B0044018B004401CB00440CCF00F4011
S1134C70A0B004402DE9FC4104000D00160000F032
S1134C806FF9002801D0012064E02078411EC9B2E8
S1134C902000FEF711F80320FEF79BF88DF80000C2
S1134CA00420FEF796F88DF801000720FEF791F82E
S1134CB08DF805009DF800709DF80180002000F03B
S1134CC04FFB002000F050FB9DF8000010F0F800AE
S1134CD08DF800009DF8000050F002008DF80000EF
S1134CE09DF8010010F0FE008DF801000020FEF791
S1134CF070F88DF804000120FEF76BF88DF80300BE
S1134D000220FEF766F88DF802009DF8020050F0CC
S1134D1040008DF802009DF804100020FDF7EAFE23
S1134D209DF803100120FDF7E5FE9DF80210022016
S1134D30FDF7E0FE9DF801100420FDF7DBFE9DF871
S1134D4005100720FDF7D6FE9DF800100320FDF79F
S1134D50D1FE0020BDE8F68130B583B004000D001B
S1134D6000F0FEF8002801D0012050E0280000F0F7
S1134D70F7FA200000F0F8FA0320FEF72AF88DF87D
S1134D8000000420FEF725F88DF802009DF80000CD
S1134D9010F0F8008DF800009DF8000050F00100BC
S1134DA08DF800009DF8020010F0FE008DF802005E
S1134DB00020FEF70EF88DF804000120FEF709F834
S1134DC08DF803000220FEF704F88DF801009DF829
S1134DD0010050F040008DF801009DF804100020FF
S1134DE0FDF788FE9DF803100120FDF783FE9DF872
S1134DF001100220FDF77EFE9DF802100420FDF74D
S1134E0079FE9DF800100320FDF774FE00203EBDDE
S1134E102DE9F047040000F0A3F8002801D0012098
S1134E2052E00320FDF7D5FF05000420FDF7D1FF74
S1134E3006000720FDF7CDFF82461AF0E70A14F0BA
S1134E4003005AEAC00A5146C9B20720FDF752FED0
S1134E50200602D555F0400501E015F0BF056007B6
S1134E6004D515F0F80555F0050503E015F0F8052F
S1134E7055F0030516F0FE060020FDF7AAFF070013
S1134E800120FDF7A6FF80460220FDF7A2FF814620
S1134E9059F004093900C9B20020FDF72BFE414640
S1134EA0C9B20120FDF726FE4946C9B20220FDF72A
S1134EB021FE3100C9B20420FDF71CFE2900C9B24D
S1134EC00320FDF717FE0020BDE8F08710B50400AD
S1134ED000F046F8002801D0012014E00A480470CC
S1134EE00A48E4B2201810F80B1C2020FDF702FE3B
S1134EF002220748E4B210EB4400B0F1160121206D
S1134F00FDF744FE002010BD4D80FF1FB058000087
S1134F105058000010B5040014F01F012320FDF7C1
S1134F20E9FD002010BD000038B504000720FDF79E
S1134F3050FF0500E4B2012C02D155F0020501E056
S1134F4015F0FD052900C9B20720FDF7D3FD31BDD9
S1134F5010B504002100C9B22220FEF7B9F810BD33
S1134F6080B50320FDF735FF10F0070002BD0000F7
S1134F7010B50024002000F0F3F9002000F0F4F94B
S1134F800020FEF7F6F80400E4B2182C02D0E4B2D4
S1134F90192C78D10C213B20FDF7ACFD17212320DF
S1134FA0FDF7A8FD4B210720FDF7A4FD01210820F2
S1134FB0FDF7A0FD1F210F20FEF78AF80221312002
S1134FC0FEF786F8B3219120FEF782F8072192209C
S1134FD0FEF77EF871218A20FEF77AF82F217920D6
S1134FE0FEF776F82F217A20FEF772F824217B2031
S1134FF0FEF76EF824217C20FEF76AF824217D2038
S1135000FEF766F824217E20FEF762F832217F2025
S1135010FEF75EF81D218020FEF75AF82D2181202D
S1135020FEF756F824218220FEF752F8242183202B
S1135030FEF74EF828216420FEF74AF85521522045
S1135040FEF746F82D215320FEF742F85F21662033
S1135050FEF73EF88F216720FEF73AF861216820B9
S1135060FEF736F803217820FEF732F8502122208B
S1135070FEF72EF813214D20FEF72AF83D213920A2
S1135080FEF726F870E0E4B2482C05D0E4B2882C90
S113509002D0E4B2C82C67D105213B20FDF72AFDDC
S11350A04B210720FDF726FD01210820FDF722FDF5
S11350B01F210F20FEF70CF802213120FEF708F81B
S11350C01B217920FEF704F81B217A20FEF700F853
S11350D020217B20FDF7FCFF20217C20FDF7F8FF39
S11350E020217D20FDF7F4FF20217E20FDF7F0FF35
S11350F020218220FDF7ECFF20218320FDF7E8FF2B
S113510030217F20FDF7E4FF1B218020FDF7E0FF25
S11351102B218120FDF7DCFF11216720FDF7D8FF4B
S113512028216420FDF7D4FF01219220FDF7D0FF50
S113513000217520FDF7CCFF3C215220FDF7C8FF6C
S1135140FF215320FDF7C4FF5F216620FDF7C0FF58
S11351506D212320FDF7BCFF24212420FDF7B8FF97
S113516036216120FDF7B4FF0B20FFF7AFFE1720B7
S1135170FFF7D0FE4B20FFF7EBFEFEF769F83C206B
S1135180FDF7D4F910BD10B504002100C9B2012007
S1135190FDF79EFF10BDF8B504000720FDF719FECA
S11351A005000520FDF715FE060016F0BF0655F0B4
S11351B040053100C9B20520FDF79CFC2900C9B2A5
S11351C00720FDF797FC032221001220FDF7DEFCE7
S11351D00220FDF7FEFD070056F0400617F0BF075A
S11351E017F0F00757F004073100C9B20520FDF7A6
S11351F081FC3900C9B20220FDF77CFCF1BD70B519
S11352000720FDF7E6FD04000520FDF7E2FD05009B
S113521014F0BF0415F0BF050220FDF7DAFD060007
S113522056F004062900C9B20520FDF763FC2100ED
S1135230C9B20720FDF75EFC3100C9B20220FDF7B8
S113524059FC70BD10B50400032221000C20FDF7A9
S113525018FE0020E07010BDDFF800F00180FF1F91
S113526080B540F2FF300078C0B2FF2813D040F27E
S1135270FF300078DFF8C4100870DFF8C40000784D
S113528010F0E00040F2FE31097811F01F010843EC
S1135290DFF8AC1008702920DFF8A81008709820F7
S11352A0DFF8A4100870DFF8A4000078C006FAD470
S11352B0DFF898000078C0F38100C0B20228F7D16B
S11352C04120DFF88C1008700020DFF88810087087
S11352D00123002200210020FFF7BEFFDFF8780041
S11352E00078C00706D5DFF87000007850F00100A0
S11352F0194908704020174908701448007880063E
S1135300FBD5124800784006FBD50F48007810F012
S11353103F000D4908700D480078C0F38100C0B209
S11353200328F8D1A0200D4908700A48007850F0ED
S1135330200008490870302002BD000002400640E9
S11353400340064001400640004006400640064037
S11353500440064005400640084006400050064010
S1135360DFF8B81308607047DFF8B41308607047BB
S113537080B5DFF8B003807810F0F000DFF8A413F4
S11353808870DFF8A003807810F0BF00DFF8941372
S11353908870DFF89003007950F00F00DFF8841371
S11353A00871DFF88003C07810F0F800DFF8741398
S11353B0C8700522DFF86C130020FDF7E7FB01BD80
S11353C080B5DFF86003807810F0F000DFF8541344
S11353D08870DFF85003807850F04400DFF84413FD
S11353E08870DFF84003007950F00F00DFF83413C1
S11353F00871DFF83003C07810F0F800DFF82413E8
S1135400C870DFF82003407910F0BF00DFF81413F0
S11354104871DFF81003C07910F0BF00C149C871AA
S1135420C04841790520FDF765FBBE48C1790720D6
S1135430FDF760FB0522BB490020FDF7A7FB01BD7A
S113544010B50B20FDF7C5FC04002000C0B210BD50
S113545010B5FDF7E9FEFDF7FBFE0822B149002077
S1135460FDF70FFDAF48C07810F007000400AD4809
S11354704078C0070BD5AB484079C00707D4032256
S1135480A8490020FDF782FBFDF7D5FE44E1A548BD
S11354900078C00740F19B80A2480078400606D5FA
S11354A0FFF766FFFCF7E9FEFDF7C5FE34E19D4812
S11354B0807840070AD59B480078400706D4FFF758
S11354C07FFFFCF71FFFFDF7B6FE25E1FFF750FF56
S11354D0E4B2012C36D077D3032C5AD003D3052C55
S11354E06ED00FD370E08F484078400607D58D48C2
S11354F0C078800603D50120FCF74DFE01E0FCF7DF
S1135500BBFD07E187484078400607D58548C07849
S1135510800603D50120FCF73EFE12E07F480068B8
S113552000280CD02520FDF754FC7C49096808713B
S113553003227A48006801680F20FDF7A2FCFCF7FB
S11355409BFDE7E07548006800280CD02520FDF796
S113555040FC7249096808710322704800680168B8
S11355600F20FDF78EFC6E48006800280ED06D48B1
S11355708079811EC9B26A480068401CFDF718FD95
S113558068488079801E664909680870FCF7A0FDA8
S1135590C0E06448C0791821084205D1FFF750FFE4
S11355A0C0B2FCF722FE0AE05E484078400603D50C
S11355B00120FCF7F0FD02E00020FCF7ECFDA9E07F
S11355C00020FCF7E8FDA5E0FCF757FEA2E05548F3
S11355D0807880072DD55348807810F0F000514929
S11355E088705048807850F022004E4988704D48A9
S11355F081780220FDF77EFA4A48407910F0DF00F6
S1135600484948714748C07810F07F004549C87040
S1135610444841790520FDF76DFA4248C1790720D5
S1135620FDF768FA3F48C1780320FDF763FAFCF7F9
S11356308DFE3C48807840072CD53A48807810F09D
S1135640F000384988703748807850F04400354974
S11356508870344881780220FDF74CFA314840794B
S113566010F0BF002F4948712E48C07910F0BF00D8
S11356702C49C8712B4841790520FDF73BFA29488C
S1135680C1790720FDF736FAFFF76AFC002801D13B
S1135690FCF738FE23488078C0071BD52148807862
S11356A010F0F0001F4988701E48807850F01100F7
S11356B01C4988701B4881780220FDF71BFA1948A1
S11356C0407910F0EF0017494871164841790520D8
S11356D0FDF710FA1348807800071BD5114880782D
S11356E010F0F0000F4988700E48807850F0880060
S11356F00C4988700B4881780220FDF7FBF90948B2
S1135700407910F07F000749487106484179052027
S1135710FDF7F0F9FDF78FFD10BD00006C91FF1F40
S11357207091FF1F1491FF1F104914391048114A3A
S113573010601148006850F478500F4A10604CF221
S113574020500E4A10804DF628100C4A1080D220AA
S11357500B4A10800B480078000705D509480078EB
S113576050F00800074A107001207047F87F0020AD
S11357700000000008ED00E0388004400E200540E1
S11357800020054002D00740F0B40F4E36683400C4
S11357900D4E366856F470260B4F3E600E0616F01A
S11357A0706656EA00761F0417F470273E43074FCD
S11357B03E6000263500EDB29D4201D26D1CFAE731
S11357C0014E3460F0BC704700F001404480044056
S11357D010B5074979441831064C7C44163404E06A
S11357E00A68081D511888470146A142F8D110BD26
S11357F0080000003C000000DBCBFFFF7411000038
S11358005080FF1F0000000047CBFFFF480000004E
S113581078FFFFFF0080FF1F0000000033CBFFFF75
S11358200800000020A9FFFF4880FF1F00000000BF
S1135830000002400000000000000800000000001A
S11358400000000000000000000000000000000054
S113585000280050007800A000C800F000180040A4
S11358600068009000B800E0000800300058008094
S1135870FFF75AFF002801D0FFF7AAFF0020C04617
S1135880C046FAF7C5FD00F000F800F001B80000CA
S11358900746384600F002F8FBE7000080B5C04632
S11358A0C046024A11001820ABBEFBE726000200E6
S11358B00B0B0B0B0B0B0C0C0C0C0C0C0D0D0D0D26
S11358C000A0064000B0064000C0064000D00640DC
S11358D00530B4000AB4FC0003FC0000704700006B
S11358E0FFBE7047FFBE7047C046C046C046C046B4
S11358F0FFF7BEFFEFBEADDE00F80700FFFFFFFFBE
S90358E9BB
